:100000000C9484000C94A1000C94A1000C94A10009
:100010000C94A1000C94A1000C94A1000C94A100DC
:100020000C945F070C94A1000C94A1000C94A10007
:100030000C94A1000C94A1000C943E090C94A10016
:100040000C94A1000C94A1000C94A1000C94A100AC
:100050000C94A1000C94A1000C94A1000C94A1009C
:100060000C94A1000C94A1000C94A1000C94A1008C
:100070000C94A1000C94A1000C94A1000C94A1007C
:100080000C94A1000C94A1000C94A1000C94A1006C
:100090000C94A1000C94A1000C94A1000C94A1005C
:1000A0000C94A1000C94A1000C94A1000C94A1004C
:1000B00009041104190421042904310439044104F8
:1000C000DF06D606D606D606D606D606D606D60647
:1000D000D606D606D306A206A906B006B706BE0601
:1000E000C506D606D606CC0607070C071107160765
:1000F0001B072A072A0720072A072A072A072A0791
:100100002A072A072A07250711241FBECFEFCDBFD4
:10011000DFE7DEBF10E7A0E0B0E7ECECFAE102C0F9
:1001200005900D92AA30B107D9F722E7AAE0B0E70F
:1001300001C01D92A23BB207E1F70E94A3000C94FC
:100140005D0D0C940000E0E0F4E080EF80838FE030
:100150008483A0E4B4E08DE08C9383E014968C93C8
:10016000A0E6B4E080E68C938BE914968C93A0EA29
:10017000B4E081E08C938FEF14968C9380E88583B4
:1001800065EA80E890E00E94260D8091650084FF7A
:10019000FCCF60E081E690E00E94260D63E080E6FF
:1001A00090E00E94260D8091650080FDFCCFE0E08C
:1001B000FAE081E0838311828BE0808380E8809382
:1001C00005040E944A0726E530E74AE550E766E65F
:1001D00070E784E690E70E94670680E00E949B013A
:1001E0000E94690980E00E9475098EEB9AE90E94DD
:1001F000CA09789489E290E080935F709093607070
:100200000CE211E00F2EF5E0FF2EF02D80910B0A8D
:1002100080FF63C0FF20A1F10115110569F10150B4
:10022000110983E0F816B9F08F1538F081E0F8165F
:10023000D1F082E0F81699F03CC084E0F81639F06D
:1002400085E0F81236C080E88093050432C080E46F
:10025000809305042EC080E2809305042AC080E1CB
:100260008093050426C0E0E0F4E080E4868380E823
:10027000868380E186831DC0FA940CE211E019C0E8
:1002800001501109B1F480E280930704E0E6F4E044
:1002900080E48783808586FF04C080E280936504C4
:1002A00003C080E28093660484E08093470408ECF6
:1002B00010E0E0E0FAE08385816083870E943D07DB
:1002C000CAE5D0E7888399830E9442078A839B838B
:1002D0000E9447078C830E94E5060E944E030E94FD
:1002E000000A94CFE0E1FBE01286138680EA9FE0EB
:1002F0008487958783E08083E0E4F4E080818860F0
:100300008083E0E2F8E080E493E08087918783E2F5
:1003100087838681806C868381EE858310926C70E2
:1003200010926D70109268701092697010926E70D9
:10033000109271710895882331F0E0E2F8E0858130
:10034000806E85830895E0E2F8E085818F71858372
:1003500081E080930E7010920D7010920F700895CE
:100360002091007030910170282720930070309305
:10037000017088E090E028C02091007030910170F9
:1003800020FF17C02091007030910170369527959D
:1003900020930070309301702091007030910170B3
:1003A00041E0242740EA3427209300703093017005
:1003B0000AC02091007030910170369527952093E6
:1003C00000703093017001970097B1F608950F9374
:1003D0001F93CF93DF9310917171112349F1EC01B9
:1003E000109271710881E1EFF0E7008389818183C8
:1003F000BE016C5F7F4F4A815B8183EF90E70E9473
:100400006A0A8A819B8102968093EF709093F070C4
:1004100010920E70009322088FEF9FEF8093007070
:1004200090930170802F0E94B00181E080930F7043
:10043000812FDF91CF911F910F910895CF93C0919C
:100440006E70CC23F1F0EFE6F0E72081DC012C9315
:10045000218111962C93119740916A7050916B7085
:100460004450510912964D935C9313974F3F510599
:1004700009F028F461E770E704960E946A0A109276
:100480006E708C2FCF91089580916C7090916D70EB
:10049000039770F1E0916C70F0916D70E259FF4834
:1004A000808190E0982F8827E0916C70F0916D70BA
:1004B000E359FF482081822B209100703091017018
:1004C0008217930761F481E080936E7080916C7065
:1004D00090916D7080936A7090936B7009C0809159
:1004E0000B7090910C70019680930B7090930C7030
:1004F00010926C7010926D7081E080937171809396
:100500000E70E0E1FBE080818E7F808310920D70A1
:100510000895E0916C70F0916D7080912008E15920
:10052000FF4880831092717180916C7090916D7012
:10053000892B61F5E0916C70F0916D70E159FF4885
:100540008081882349F0E0916C70F0916D70E159E1
:10055000FF488081823051F481E080930A708FEFF0
:100560009FEF80930070909301700BC010920A70FF
:1005700080916C7090916D70019680936C709093E7
:100580006D70E0E1FBE080818160808310921A0B46
:1005900010921B0B80910A708823C1F080916C70BF
:1005A00090916D70029748F0E0916C70F0916D70D1
:1005B000E359FF4880810E94B00180916C70909156
:1005C0006D70019680936C7090936D700895E0E16A
:1005D000FBE01286138680818160808310920D700B
:1005E0000895809168709091697001968093687009
:1005F0009093697020916870309169708091EF706C
:100600009091F0702817390798F4E0916870F09194
:100610006970EF50FF48808180932208E0916870F4
:10062000F0916970EF50FF4880810E94B0010895F9
:1006300020916870309169708091EF709091F070A6
:100640002817390739F480910070909101708093D8
:10065000220808958091EF709091F070019620919A
:100660006870309169708217930739F48091007037
:1006700090910170909322080895109268701092E2
:10068000697010920F7081E080930D70E0E1FBE0E3
:100690001286138680818160808308958091160B75
:1006A00080FF07C0E0E1FBE08681816086830E94D5
:1006B00044028091240888232CF480910E708111CB
:1006C0000E9489028091240885FF05C080910F70E7
:1006D00081110E94F1028091240886FF0BC0809155
:1006E0000D70882339F0E0E2F8E08481806484832F
:1006F0000E94E70208958F929F92AF92BF92CF928D
:10070000DF92EF92FF920F931F93CF93DF93EC0151
:100710002115310509F458C08901169507951695DC
:100720000795169507952830310520F487E0C82EE7
:10073000C21A0BC0C02ECC0CCC0CCC0C8C2D821B46
:100740000F2EF7E0CF2EF02DC80ED12C37C0AD2CD8
:10075000B12C45018FEF881A980AF801FF27CF01C5
:1007600001968A0D9B1D860F971FDC01EC90F12CE2
:100770000C2C02C0EE0CFF1C0A94E2F78FEF90E005
:100780000C2C02C0880F991F0A94E2F7EA0DFB1D9A
:10079000E60FF71F9081E8E0F0E0EC19F109292F4E
:1007A00030E002C035952795EA95E2F7D401AC0F09
:1007B000BD1F8E21282B14962C93D3948D2D90E061
:1007C0008417950720F203C005960E946A0ADF91FC
:1007D000CF911F910F91FF90EF90DF90CF90BF903E
:1007E000AF909F908F900895FC0110821182128229
:1007F00013821682178214821582089590E0FC01FC
:100800003B97E830F10508F043C0E85AFF4F0C94DD
:100810004E0AE0E8F1E7808191810196808391831F
:100820000895E0E8F1E782819381019682839383C2
:100830000895E0E8F1E784819581019684839583AA
:100840000895E0E8F1E78681978101968683978392
:100850000895E0E8F1E7808591850196808791878A
:100860000895E0E8F1E78285938501968287938772
:100870000895E0E8F1E7848595850196848795875A
:100880000895E0E8F1E78685978501968687978742
:100890000895CF93DF93EC01898188231CF480E1D4
:1008A0000E94FE03CE010E94E701DF91CF910895DF
:1008B000CF93DF93EC012C8130E0322F22278D8102
:1008C000282B8E8190E0982F88274F81842BAC01B4
:1008D000415051094832510588F5A901480F591F67
:1008E0004932510508F5AC015695479556954795FF
:1008F000569547954A835B8387709927892B21F00A
:100900004F5F5F4F4A835B834A815B814C83609179
:10091000767170917771CE010E947B038A819B81F1
:1009200001968A839B8313C089818068898382E0D2
:100930008C8381E090E08A839B8309C089818068F1
:10094000898383E08C8381E090E08A839B83CE015E
:100950000E944904DF91CF910895CF93DF93EC017A
:100960002C8130E0322F22278D81282B8E8190E040
:10097000982F88274F81842BAC01415051094E316B
:10098000510588F5A901480F591F4F31510508F548
:10099000AC015695479556954795569547954A8388
:1009A0005B8387709927892B21F04F5F5F4F4A83C4
:1009B0005B834A815B814C8360917271709173712A
:1009C000CE010E947B038A819B8101968A839B834F
:1009D00013C089818068898382E08C8381E090E004
:1009E0008A839B8309C089818068898383E08C83A3
:1009F00081E090E08A839B83CE010E944904DF91CD
:100A0000CF910895CF92DF92FF920F931F93CF93D0
:100A1000DF93EC012C8130E0322F22278D81282BAF
:100A2000B9018E8190E0982F88274F81842BAC01EB
:100A3000FC0131973A9708F03FC0280F391F2B303F
:100A4000310518F12FC0CF2CD12C8601000F111FBA
:100A50000F5F1F4F260F371F220F331FA091747196
:100A6000B0917571A20FB31F11962C9111970C0FB5
:100A70001D1FF8012483F6013196EE0FFF1F2C9104
:100A8000EC0FFD1F2483F39401C0F12C2F2D30E0D7
:100A900024173507C0F2880F991F8C8301968A832B
:100AA0009B8313C089818068898382E08C8381E085
:100AB00090E08A839B8309C089818068898383E071
:100AC0008C8381E090E08A839B83CE010E9449045D
:100AD000DF91CF911F910F91FF90DF90CF900895FC
:100AE0000F931F93CF93DF93EC018C8190E0982FAD
:100AF00088272D81822B4E8150E0542F44272F814F
:100B0000422B9A01215031092A30310508F5840F12
:100B1000951F0B9798F48A01000F111F6091907137
:100B200070919171A801CE0105960E946A0A0C830A
:100B3000A8014F5F5F4F4A835B8313C08981806840
:100B4000898382E08C8381E090E08A839B8309C063
:100B500089818068898383E08C8381E090E08A8347
:100B60009B83CE010E944904DF91CF911F910F9189
:100B70000895FC01248130E0322F22278581282B23
:100B8000B901468150E0542F44278781482B4115F5
:100B9000510521F041158FEF5807F1F569327105C4
:100BA00088F5C90196958795969587959695879529
:100BB000382F330F330F330F231B452B89F0A091B0
:100BC0007671B0917771A80FB91F81E090E002C0F3
:100BD000880F991F2A95E2F79C91892B8C9325C049
:100BE000A0917671B0917771A80FB91F81E090E064
:100BF00002C0880F991F2A95E2F780959C9189235E
:100C00008C9313C081818068818382E0848381E03A
:100C100090E08283938309C081818068818383E02F
:100C2000848381E090E082839383CF010E94490412
:100C30000895CF93DF93EC018C8190E0982F882763
:100C40002D81822B4E8150E0542F44272F81422B3F
:100C500049375105B0F49C01240F351F213231056D
:100C600080F42091747130917571880F991F440F31
:100C7000551FBE01685F7F4F820F931F0E946A0A53
:100C800009C089818068898383E08C8381E090E05A
:100C90008A839B8384E090E08A839B83CE010E94B9
:100CA0004904DF91CF910895E0E8F1E716861786B1
:100CB0001282138214821582108211821486158684
:100CC0001682178212861386108611860895CF9297
:100CD000DF92EF92FF920F931F93CF93DF936C01FC
:100CE0007B018A01E9010E94720188E791E70E9475
:100CF000F4030E945406C0927671D0927771E0920C
:100D00007271F09273710093907110939171C0930E
:100D10007471D0937571DF91CF911F910F91FF90F6
:100D2000EF90DF90CF900895CF93DF93EC01ED81AA
:100D30008E2F90E084319105C8F5FC01E05AFF4FF9
:100D40000C944E0AE0E8F1E7808191819E838F83C5
:100D500036C0E0E8F1E7828193819E838F832FC0C4
:100D6000E0E8F1E7848195819E838F8328C0E0E8E5
:100D7000F1E787818E8386818F8321C0E0E8F1E7E8
:100D800081858E8380858F831AC0E0E8F1E78385B3
:100D90008E8382858F8313C0E0E8F1E787858E8399
:100DA00086858F830CC00E94540609C089818068A3
:100DB000898381E08C8381E090E08A839B83CE01EC
:100DC0000E944904DF91CF910895CF93DF93CDB76F
:100DD000DEB7C450D140CDBFDEBFCE0101960E9428
:100DE0001E02882309F442C0E0E8F1E7868197817A
:100DF0000196868397832A81822F90E0FC013197A8
:100E0000E031F10538F5EC58FF4F0C944E0ACE0155
:100E100001960E9458042AC0CE0101960E94AD049A
:100E200025C0CE0101960E94020520C0CE01019688
:100E30000E9470051BC0CE0101960E94B90516C024
:100E4000CE0101960E94940611C0CE0101960E9427
:100E500019060CC020682A8381E08D8381E090E030
:100E60008B839C83CE0101960E944904CC5FDE4FA8
:100E7000CDBFDEBFDF91CF91089580914B709091EF
:100E80004C7008958091497090914A7008958091B6
:100E90004870089583E080931304E0E0FBE082E073
:100EA000858381E080838093487084E0809345044B
:100EB000E0E6F4E080E4858380E2858308951F9274
:100EC0000F920FB60F921124CF92DF92EF92FF9202
:100ED0000F931F932F933F934F935F936F937F9342
:100EE0008F939F93AF93BF93EF93FF93CF93DF9332
:100EF000CDB7DEB76097CDBFDEBFA0E0B4E080E144
:100F000017968C931797E0E0FBE0E284F38488E087
:100F100019968C93128613868091067090910770B3
:100F2000892B81F0809106709091077001978093D2
:100F300006709093077080E991E08093047090931D
:100F4000057080C1809147708F5F809347708F30AC
:100F500010F0109247700091477010E0C801880FA0
:100F6000991F9C01275D3F486901F901208131816A
:100F7000A3E6B0E00E94540ADC01CB018E0D9F1D58
:100F8000A11DB11D065E1F48F8012081BC01CD01E5
:100F9000620F711D811D911D24E630E040E050E09C
:100FA0000E942C0AF60120833183F801608380912E
:100FB000297090912A70BC01621B730B9B012E0D4E
:100FC0003F1D40E050E060E070E980ED93E00E945A
:100FD0002C0A69017A01809119708F5F80931970D2
:100FE000833010F01092197080910270909103700C
:100FF000092E000CAA0BBB0BAC01BD01440F551F01
:10100000661F771F840F951FA61FB71FA6010D2C03
:10101000000C660B770B840F951FA61FB71F20913E
:101020001870820F911DA11DB11DAC01BD017695F7
:10103000679557954795769567955795479540934A
:101040000270509303708370809318708091487081
:10105000823009F44CC0833009F47FC0813009F03C
:101060009AC080911670909117708C199D092091EB
:10107000147030911570820F931F0D973CF080E92A
:1010800091E0809304709093057085C080914970C1
:1010900090914A708C199D090F973CF080E991E07E
:1010A000809304709093057076C080910470909145
:1010B00005701816190634F4019780930470909304
:1010C000057069C084EF91E080930470909305707F
:1010D00082E08093487080E4809305048091497099
:1010E00090914A70809312709093137054C08091C5
:1010F0000470909105701816190634F401978093C6
:1011000004709093057047C080911670909117708D
:101110008C199D092091147030911570820F931FC6
:101120000F974CF080E28093660480E18093050481
:1011300083E0809348708091497090914A708C1937
:101140009D09419744F180E28093660480E1809399
:10115000050483E0809348701EC0809112709091C6
:101160001370885191402091497030914A7028172E
:10117000390734F480E48093670482E0809311702F
:1011800080911170181624F481508093117003C05F
:1011900080E480936504DF92CF9288EC9AE99F9374
:1011A0008F938E010F5F1F4F1F930F930E94730A3F
:1011B000F80101900020E9F73197BF01601B710B26
:1011C000C8010E948509A0914970B0914A7023E638
:1011D00030E00E94630A86010D2C000C220B330BB9
:1011E000DC01CB01800F911FA21FB31F2091107053
:1011F000BC01CD01620F711D811D911D24E630E0FF
:1012000040E050E00E942C0A2093497030934A70CD
:101210006093107080911670909117708C199D09D1
:101220008093147090931570C0921670D0921770BE
:10123000C0924B70D0924C700F900F900F900F9007
:101240000F900F906096CDBFDEBFDF91CF91FF91E1
:10125000EF91BF91AF919F918F917F916F915F912E
:101260004F913F912F911F910F91FF90EF90DF9041
:10127000CF900F900FBE0F901F9018951F920F9256
:101280000FB60F9211248F939F93EF93FF93E0E09B
:10129000FBE086818260868384EF91E08093067014
:1012A0009093077081E08093487010924B70109279
:1012B0004C701092497010924A7080E4809306043A
:1012C000FF91EF919F918F910F900FBE0F901F9004
:1012D0001895E0E4F8E080E091E08087918783E072
:1012E00087838681806C86830895882331F0E0E4CB
:1012F000F8E09581906C958305C0E0E4F8E0958175
:101300009F739583809308700895CF93DF93EC01CA
:1013100080914D7090914E708F3F910509F0A0F52E
:1013200040E050E02AC02091517030915270F90194
:101330003196E0935170F0935270DE01A40FB51F07
:101340009C91D901AE56BE489C9320914D7030912E
:101350004E702F5F3F4F20934D7030934E70EF3F94
:10136000F10529F020F010925170109252702F3F29
:10137000310509F058F44F5F5F4F262F30E04217D8
:10138000530788F281E003C083E001C083E0DF916E
:10139000CF910895FC0101900020E9F73197BF013A
:1013A000681B790B0E94850980E0089580914D703B
:1013B00090914E70009701F120914F7030915070D4
:1013C000A9014F5F5F4F40934F7050935070F901E8
:1013D000EE56FE48208120934208019780934D707D
:1013E00090934E704F3F510549F040F010924F706E
:1013F0001092507081E0089582E0089581E0089590
:101400008091440885FF08C080914D7090914E7086
:10141000892B11F00E94D609809144088823DCF4BE
:10142000E0915470F091557080914008EE56FD485F
:101430008083809154709091557001968093547080
:1014400090935570809738F01092547010925570A8
:1014500081E0809353700895A1E21A2EAA1BBB1B52
:10146000FD010DC0AA1FBB1FEE1FFF1FA217B30770
:10147000E407F50720F0A21BB30BE40BF50B661F86
:10148000771F881F991F1A9469F76095709580954A
:1014900090959B01AC01BD01CF010895EE0FFF1F98
:1014A0000590F491E02D0994A29FB001B39FC00173
:1014B000A39F700D811D1124911DB29F700D811D80
:1014C0001124911D08950E94540AB7FF0895821BAC
:1014D000930B0895FB01DC0102C001900D92415075
:1014E0005040D8F70895AEE0B0E0E9E7FAE00C9498
:1014F0003A0D0D891E8986E08C8309831A838FEF4C
:101500009FE78D839E83AE01475E5F4F6F89788D25
:10151000CE0101960E94950AEF81F885E00FF11F38
:1015200010822E96E4E00C94530DABE0B0E0EBE9B2
:10153000FAE00C942C0D6C017B018A01FC011682EF
:101540001782838181FFCCC1CE0101963C01F60157
:101550009381F70193FD859193FF81917F0188230A
:1015600009F4BAC1853239F493FD859193FF8191D5
:101570007F01853229F4B60190E00E948C0CE7CF00
:10158000912C212C312CFFE1F315D8F08B3279F01E
:1015900038F4803279F08332A1F4232D20611DC00C
:1015A0008D3261F0803369F4232D216016C0832DC4
:1015B0008260382EE32DE4603E2E2AC0F32DF860C1
:1015C0001DC037FC2DC020ED280F2A3040F08E3290
:1015D000B9F436FC81C1232D2064322E19C036FEA9
:1015E00006C08AE0989E200D1124922E11C0EAE0D8
:1015F0002E9E200D1124222EF32DF0623F2E08C0C6
:101600008C3621F4832D8068382E02C0883641F450
:10161000F70193FD859193FF81917F018111B3CFF4
:10162000982F9F7D9554933028F40C5F1F4F9FE3B4
:1016300099830DC0833631F0833771F0833509F01B
:1016400059C021C0F801808189830E5F1F4F882413
:101650008394912C530113C02801F2E04F0E511CCA
:10166000F801A080B18036FE03C0692D70E002C091
:101670006FEF7FEFC5010E94810C4C018201F32DB9
:10168000FF773F2E16C0280122E0420E511CF801C0
:10169000A080B18036FE03C0692D70E002C06FEFFC
:1016A0007FEFC5010E94760C4C01F32DF0683F2EB0
:1016B000820133FC1BC0822D90E088169906B0F49D
:1016C000B60180E290E00E948C0C2A94F4CFF501E0
:1016D00037FC859137FE81915F01B60190E00E9451
:1016E0008C0C21102A9421E0821A91088114910413
:1016F00071F7E8C0843611F0893641F5F80137FEFC
:1017000007C060817181828193810C5F1F4F08C087
:1017100060817181072E000C880B990B0E5F1F4FA3
:10172000F32DFF763F2E97FF09C090958095709519
:1017300061957F4F8F4F9F4FF0683F2E2AE030E03A
:10174000A3010E94C80C882E861845C0853731F445
:10175000232D2F7EB22E2AE030E025C0932D997FD5
:10176000B92E8F36C1F018F4883579F0B5C08037BE
:1017700019F0883721F0B0C0E92FE061BE2EB4FE29
:101780000DC0FB2DF460BF2E09C034FE0AC0292F06
:101790002660B22E06C028E030E005C020E130E02F
:1017A00002C020E132E0F801B7FE07C0608171811C
:1017B000828193810C5F1F4F06C06081718180E040
:1017C00090E00E5F1F4FA3010E94C80C882E861860
:1017D000FB2DFF773F2E36FE0DC0232D2E7FA22E30
:1017E000891458F434FE0BC032FC09C0832D8E7E60
:1017F000A82E05C0B82CA32C03C0B82C01C0B92C4E
:10180000A4FE0FC0FE01E80DF11D8081803321F49C
:101810009A2D997EA92E09C0A2FE06C0B394B39456
:1018200004C08A2D867809F0B394A3FC11C0A0FEF1
:1018300006C0B21488F4280C922C9B180EC0B21467
:1018400060F4B60180E290E00E948C0CB394F7CF74
:10185000B21418F42B1802C0982C212CA4FE10C02E
:10186000B60180E390E00E948C0CA2FE17C0A1FCA0
:1018700003C088E790E002C088E590E0B6010CC0A4
:101880008A2D867859F0A1FE02C08BE201C080E269
:10189000A7FC8DE2B60190E00E948C0C891438F40C
:1018A000B60180E390E00E948C0C9A94F7CF8A9462
:1018B000F301E80DF11D8081B60190E00E948C0CCF
:1018C0008110F5CF222009F442CEB60180E290E0EB
:1018D0000E948C0C2A94F6CFF6018681978102C073
:1018E0008FEF9FEF2B96E2E10C94450DFC010590E4
:1018F000615070400110D8F7809590958E0F9F1F12
:101900000895FC016150704001900110D8F7809556
:1019100090958E0F9F1F08950F931F93CF93DF9382
:10192000FB01238121FD03C08FEF9FEF2CC022FF1D
:1019300016C046815781248135814217530744F4EC
:10194000A081B1819D012F5F3F4F208331838C9314
:10195000268137812F5F3F4F2683378314C08B0149
:10196000EC01FB010084F185E02D0995892BE1F65E
:10197000D80116968D919C911797019616968D9386
:101980009C931797CE01DF91CF911F910F910895EE
:10199000FA01AA27283051F1203181F1E8946F93A0
:1019A0006E7F6E5F7F4F8F4F9F4FAF4FB1E03ED046
:1019B000B4E03CD0670F781F891F9A1FA11D680FE4
:1019C000791F8A1F911DA11D6A0F711D811D911D17
:1019D000A11D20D009F468943F912AE0269F11248C
:1019E0003019305D3193DEF6CF010895462F4770F0
:1019F000405D4193B3E00FD0C9F7F6CF462F4F704B
:101A0000405D4A3318F0495D31FD4052419302D0A8
:101A1000A9F7EACFB4E0A69597958795779567954E
:101A2000BA95C9F700976105710508959B01AC014E
:101A30000A2E06945795479537952795BA95C9F775
:101A4000620F731F841F951FA01D0895DC0128EDF0
:101A5000209334006C9308952F923F924F925F929F
:101A60006F927F928F929F92AF92BF92CF92DF92AE
:101A7000EF92FF920F931F93CF93DF93CDB7DEB713
:101A8000CA1BDB0BCDBFDEBF09942A883988488882
:101A90005F846E847D848C849B84AA84B984C8848A
:101AA000DF80EE80FD800C811B81AA81B981CE0F81
:0E1AB000D11DCDBFDEBFED010895F894FFCF2C
:0E1ABE0042472073656E736F720025750A0033
:0A1ACC00FFFFD0079001F4010100B4
:00000001FF
