S011000042475F73656E736F722E7372656391
S11300000C9484000C94A1000C94A1000C94A10005
S11300100C94A1000C94A1000C94A1000C94A100D8
S11300200C94A1000C94A1000C94A1000C94A100C8
S11300300C94A1000C94A1000C94A1000C94A100B8
S11300400C94A1000C94A1000C94A1000C94A100A8
S11300500C94A1000C94A1000C94A1000C94A10098
S11300600C94A1000C94A1000C94A1000C94A10088
S11300700C94A1000C94A1000C94A1000C94A10078
S11300800C94A1000C94A1000C94A1000C94A10068
S11300900C94A1000C94A1000C94A1000C94A10058
S11300A00C94A1000C94A1000C94A1000C94A10048
S11300B08F0497049F04A704AF04B704BF04C704C4
S11300C065075C075C075C075C075C075C075C070B
S11300D05C075C07590728072F0736073D074407C5
S11300E04B075C075C0752078D07920797079C072D
S11300F0A107B007B007A607B007B007B007B0075D
S1130100B007B007B007AB0711241FBECFEFCDBFB8
S1130110DFE7DEBF10E7A0E0B0E7E4EBFFE002C0FA
S113012005900D92A430B107D9F721E7A4E0B0E718
S113013001C01D92A234B207E1F70E94A3000C94FF
S1130140D8070C940000E0E0F4E080818C688083A0
S1130150848183778483E0EAF4E080818863808308
S11301608481877C848310926004A0E4B4E08C9141
S11301708F608C9314968C911497807F14968C9333
S113018080E2858365EA80E890E00E94D20780914E
S1130190650084FFFCCF60E081E690E00E94D20716
S11301A063E080E690E00E94D2078091650080FDC4
S11301B0FCCFE0E0FAE081E0838311828BE080836E
S11301C080E28093A50460911670709117702AE004
S11301D030E74EE050E780911470909115700E94C2
S11301E0ED0680E00E941E027894D0E00F2EF8EE17
S11301F0EF2EF3E0FF2EF02D0CE211E0C4E080912D
S11302000B0A80FFEFC0CC2331F101151105F9F081
S113021001501109C23081F018F4C13089F029C0AD
S1130220C33031F0C43029F580E28093A50421C0A5
S113023084E0809305041DC088E08093050419C000
S113024088E08093060480E28093A60412C0C15023
S11302500CE211E00EC00150110959F484E08093BE
S11302600704E0E4F4E081E0878388E0878308EC16
S113027010E0E0E0FAE0838581608387C111B0C0BB
S1130280D23009F44AC028F4DD2361F0D13009F1F9
S1130290A7C0D43009F46CC008F465C0D53009F4A3
S11302A087C09EC0E0E4F4E081E0858388E0858334
S11302B080E18093A50481E0E81AF10809F090C078
S11302C080E18093A60481E0868388E08683DF5FF3
S11302D087C0E0910070F091017080818F7180621D
S11302E0808311828091680482FD7AC080916804C1
S11302F081FD76C08091680484FD72C08091680499
S113030083FD6EC0E0E4F4E081E0868388E08683C8
S113031080E18093A604DF5F63C08091680481FF5D
S11303200AC081E080934504E0910070F09101706F
S11303308081816080838091680483FF0AC088E0A3
S113034080934504E0910070F09101708081846095
S113035080838091680481FF43C08091680483FF97
S11303603FC0DF5F3DC080E18093A504DF5F38C0FC
S11303708091680482FD34C08091680481FD30C09E
S11303808091680484FD2CC08091680483FD28C09A
S1130390E0910070F091017080818E7F8083E09104
S11303A00070F091017080818B7F8083DF5F18C0C3
S11303B0E0E4F4E081E0868388E0868380E1809352
S11303C0A604E0910070F0910170808182608083C6
S11303D0E0910070F0910170808188608083D1E0A9
S11303E00E946B070E94D4030ACFE0E1FBE012866F
S11303F0138680EA9FE08487958783E08083E0E02A
S1130400F4E0808180688083E0E0F8E080E493E0B9
S11304108087918783E287838681806C868381EEDF
S1130420858310921C7010921D7010921870109297
S1130430197010921E70109221710895882331F062
S1130440E0E0F8E08581806E85830895E0E0F8E0DF
S113045085818F71858381E0809308701092077085
S1130460109209700895209102703091037028272A
S1130470209302703093037088E090E028C02091AC
S113048002703091037020FF17C0209102703091E8
S11304900370369527952093027030930370209152
S11304A002703091037041E0242740EA34272093FE
S11304B00270309303700AC020910270309103706F
S11304C03695279520930270309303700197009717
S11304D0B1F608950F931F93CF93DF931091217179
S11304E0112349F1EC01109221710881E1EAF0E74E
S11304F0008389818183BE016C5F7F4F4A815B8168
S113050083EA90E70E94C9078A819B8102968093BF
S11305109F709093A07010920870009302088FEF60
S11305209FEF8093027090930370802F0E94330298
S113053081E080930970812FDF91CF911F910F91FA
S11305400895CF93C0911E70CC23F1F0EFE1F0E752
S11305502081DC012C93218111962C9311974091D9
S11305601A7050911B704450510912964D935C932C
S113057013974F3F510509F028F461E270E70496A0
S11305800E94C90710921E708C2FCF9108958091FC
S11305901C7090911D70039770F1E0911C70F091A4
S11305A01D70E25EFF48808190E0982F8827E091DB
S11305B01C70F0911D70E35EFF482081822B209116
S11305C00270309103708217930761F481E0809385
S11305D01E7080911C7090911D7080931A7090937E
S11305E01B7009C0809105709091067001968093EC
S11305F005709093067010921C7010921D7081E02B
S11306008093217180930870E0E1FBE080818E7F0C
S11306108083109207700895E0911C70F0911D7012
S113062080910008E15EFF488083109221718091DF
S11306301C7090911D70892B79F5E0911C70F091DC
S11306401D70E15EFF488081882349F0E0911C70B1
S1130650F0911D70E15EFF488081823069F481E091
S1130660809304708FEF9FEF8093027090930370D8
S113067088E0809307040BC01092047080911C7072
S113068090911D70019680931C7090931D70E0E111
S1130690FBE080818160808310921A0B10921B0B07
S11306A0809104708823C1F080911C7090911D701A
S11306B0029748F0E0911C70F0911D70E35EFF48D2
S11306C080810E94330280911C7090911D7001966C
S11306D080931C7090931D700895E0E1FBE01286F6
S11306E013868081816080831092077008958091C1
S11306F018709091197001968093187090931970E6
S1130700209118703091197080919F709091A07011
S11307102817390798F4E0911870F0911970EF5583
S1130720FF48808180930208E0911870F09119705D
S1130730EF55FF4880810E9433020895209118707C
S11307403091197080919F709091A070281739078B
S113075039F4809102709091037080930208089597
S113076080919F709091A0700196209118703091A3
S113077019708217930739F4809102709091037075
S113078090930208089510921870109219701092A4
S1130790097081E080930770E0E1FBE01286138624
S11307A080818160808308958091160B80FF07C04B
S11307B0E0E1FBE08681816086830E94C70280912C
S11307C0040888232CF48091087081110E940C0382
S11307D08091040885FF05C08091097081110E94F1
S11307E077038091040886FF0BC0809107708823EB
S11307F039F0E0E0F8E08481806484830E946D0332
S113080008958F929F92AF92BF92CF92DF92EF9210
S1130810FF920F931F93CF93DF93EC0121153105C2
S113082009F458C0890116950795169507951695EC
S113083007952830310520F487E0C82EC21A0BC072
S1130840C02ECC0CCC0CCC0C8C2D821B0F2EF7E0C4
S1130850CF2EF02DC80ED12C37C0AD2CB12C4501B4
S11308608FEF881A980AF801FF27CF0101968A0DA5
S11308709B1D860F971FDC01EC90F12C0C2C02C001
S1130880EE0CFF1C0A94E2F78FEF90E00C2C02C0F0
S1130890880F991F0A94E2F7EA0DFB1DE60FF71F74
S11308A09081E8E0F0E0EC19F109292F30E002C072
S11308B035952795EA95E2F7D401AC0FBD1F8E213B
S11308C0282B14962C93D3948D2D90E084179507A0
S11308D020F203C005960E94C907DF91CF911F91B2
S11308E00F91FF90EF90DF90CF90BF90AF909F90CB
S11308F08F900895FC011082118212821382168255
S1130900178214821582089590E0FC013B97E83029
S1130910F10508F043C0E85AFF4F0C94C307E0E325
S1130920F1E7808191810196808391830895E0E3CA
S1130930F1E7828193810196828393830895E0E3B2
S1130940F1E7848195810196848395830895E0E39A
S1130950F1E7868197810196868397830895E0E382
S1130960F1E7808591850196808791870895E0E37A
S1130970F1E7828593850196828793870895E0E362
S1130980F1E7848595850196848795870895E0E34A
S1130990F1E7868597850196868797870895CF9393
S11309A0DF93EC01898188231CF480E10E94840494
S11309B0CE010E946A02DF91CF910895CF93DF9315
S11309C0EC012C8130E0322F22278D81282B8E815F
S11309D090E0982F88274F81842BAC014150510916
S11309E04832510588F5A901480F591F493251056C
S11309F008F5AC01569547955695479556954795F4
S1130A004A835B8387709927892B21F04F5F5F4F5F
S1130A104A835B834A815B814C8360912671709128
S1130A202771CE010E9401048A819B8101968A83E9
S1130A309B8313C089818068898382E08C8381E0F1
S1130A4090E08A839B8309C089818068898383E0DD
S1130A508C8381E090E08A839B83CE010E94CF0443
S1130A60DF91CF910895CF93DF93EC012C8130E097
S1130A70322F22278D81282B8E8190E0982F882772
S1130A804F81842BAC01415051094E31510588F5F9
S1130A90A901480F591F4F31510508F5AC0156956E
S1130AA0479556954795569547954A835B83877036
S1130AB09927892B21F04F5F5F4F4A835B834A81DB
S1130AC05B814C836091227170912371CE010E94ED
S1130AD001048A819B8101968A839B8313C0898147
S1130AE08068898382E08C8381E090E08A839B83A1
S1130AF009C089818068898383E08C8381E090E0E8
S1130B008A839B83CE010E94CF04DF91CF91089505
S1130B10CF92DF92FF920F931F93CF93DF93EC0159
S1130B202C8130E0322F22278D81282BB9018E8130
S1130B3090E0982F88274F81842BAC01FC013197DA
S1130B403A9708F03FC0280F391F2B30310518F1B0
S1130B502FC0CF2CD12C8601000F111F0F5F1F4F08
S1130B60260F371F220F331FA0912471B0912571D6
S1130B70A20FB31F11962C9111970C0F1D1FF80192
S1130B802483F6013196EE0FFF1F2C91EC0FFD1F0D
S1130B902483F39401C0F12C2F2D30E02417350762
S1130BA0C0F2880F991F8C8301968A839B8313C09C
S1130BB089818068898382E08C8381E090E08A83E4
S1130BC09B8309C089818068898383E08C8381E069
S1130BD090E08A839B83CE010E94CF04DF91CF9162
S1130BE01F910F91FF90DF90CF9008950F931F9363
S1130BF0CF93DF93EC018C8190E0982F88272D818F
S1130C00822B4E8150E0542F44272F81422B9A018E
S1130C10215031092A30310508F5840F951F0B97AF
S1130C2098F48A01000F111F609140717091417115
S1130C30A801CE0105960E94C9070C83A8014F5F45
S1130C405F4F4A835B8313C089818068898382E014
S1130C508C8381E090E08A839B8309C089818068CA
S1130C60898383E08C8381E090E08A839B83CE0137
S1130C700E94CF04DF91CF911F910F910895FC0141
S1130C80248130E0322F22278581282BB901468127
S1130C9050E0542F44278781482B4115510521F0FA
S1130CA041158FEF5807F1F56932710588F5C901CF
S1130CB0969587959695879596958795382F330FB2
S1130CC0330F330F231B452B89F0A0912671B0916C
S1130CD02771A80FB91F81E090E002C0880F991F07
S1130CE02A95E2F79C91892B8C9325C0A0912671BB
S1130CF0B0912771A80FB91F81E090E002C0880F5E
S1130D00991F2A95E2F780959C9189238C9313C0AF
S1130D1081818068818382E0848381E090E08283A2
S1130D20938309C081818068818383E0848381E027
S1130D3090E082839383CF010E94CF040895CF93E0
S1130D40DF93EC018C8190E0982F88272D81822BF2
S1130D504E8150E0542F44272F81422B49375105AF
S1130D60B0F49C01240F351F2132310580F4209109
S1130D70247130912571880F991F440F551FBE01AE
S1130D80685F7F4F820F931F0E94C90709C0898142
S1130D908068898383E08C8381E090E08A839B83ED
S1130DA084E090E08A839B83CE010E94CF04DF918C
S1130DB0CF910895E0E3F1E7168617861282138235
S1130DC01482158210821182148615861682178267
S1130DD012861386108611860895CF92DF92EF92C1
S1130DE0FF920F931F93CF93DF936C017B018A01D2
S1130DF0E9010E94F50188E291E70E947A040E94C9
S1130E00DA06C0922671D0922771E0922271F09294
S1130E1023710093407110934171C0932471D09356
S1130E202571DF91CF911F910F91FF90EF90DF908B
S1130E30CF900895CF93DF93EC01ED818E2F90E056
S1130E4084319105C8F5FC01E05AFF4F0C94C307A7
S1130E50E0E3F1E7808191819E838F8336C0E0E3F4
S1130E60F1E7828193819E838F832FC0E0E3F1E7D2
S1130E70848195819E838F8328C0E0E3F1E7878195
S1130E808E8386818F8321C0E0E3F1E781858E83A1
S1130E9080858F831AC0E0E3F1E783858E838285A2
S1130EA08F8313C0E0E3F1E787858E8386858F8384
S1130EB00CC00E94DA0609C089818068898381E0B8
S1130EC08C8381E090E08A839B83CE010E94CF04CF
S1130ED0DF91CF910895CF93DF93CDB7DEB7C450A0
S1130EE0D140CDBFDEBFCE0101960E94A10288236E
S1130EF009F442C0E0E3F1E7868197810196868395
S1130F0097832A81822F90E0FC013197E031F1052B
S1130F1038F5EC58FF4F0C94C307CE0101960E949C
S1130F20DE042AC0CE0101960E94330525C0CE01FD
S1130F3001960E94880520C0CE0101960E94F60504
S1130F401BC0CE0101960E943F0616C0CE01019639
S1130F500E941A0711C0CE0101960E949F060CC080
S1130F6020682A8381E08D8381E090E08B839C83D9
S1130F70CE0101960E94CF04CC5FDE4FCDBFDEBF11
S1130F80DF91CF910895EE0FFF1F0590F491E02DAE
S1130F900994FB01DC0102C001900D9241505040C4
S1130FA0D8F70895DC0128ED209334006C9308955C
S1070FB0F894FFCFDF
S1070FB40E70FFFFB9
S9030000FC
