:100000000C9484000C94A1000C94A1000C94A10009
:100010000C94A1000C94A1000C94A1000C94A100DC
:100020000C94A1000C94A1000C94A1000C94A100CC
:100030000C94A1000C94A1000C94A1000C94A100BC
:100040000C94A1000C94A1000C94A1000C94A100AC
:100050000C94A1000C94A1000C94A1000C94A1009C
:100060000C94A1000C94A1000C94A1000C94A1008C
:100070000C94A1000C94A1000C94A1000C94A1007C
:100080000C94A1000C94A1000C94A1000C94A1006C
:100090000C94A1000C94A1000C94A1000C94A1005C
:1000A0000C94A1000C94A1000C94A1000C94A1004C
:1000B00011051905210529053105390541054905B0
:1000C0000B080208020802080208020802080208D7
:1000D00002080208FF07CE07D507DC07E307EA0797
:1000E000F10702080208F807330838083D084208FB
:1000F0004708560856084C08560856085608560829
:10010000560856085608510811241FBECFEFCDBF20
:10011000DFE7DEBF10E7A0E0B0E7E0E0F1E102C01A
:1001200005900D92A830B107D9F721E7A8E0B0E714
:1001300001C01D92A634B207E1F70E94EB010C94B6
:100140007E080C940000E0E0F4E080818C688083FD
:100150008481837F8483E0EAF4E080818863808304
:100160008481877C848310926004E0E4F4E08081E1
:100170008F6080838481807F848365EA80E890E05B
:100180000E9478088091650084FFFCCF60E081E6E2
:1001900090E00E94780863E080E690E00E94780892
:1001A0008091650080FDFCCFE0E0FAE081E0838390
:1001B00011828BE080830895A0910470B091057046
:1001C000E0E6F4E08085869581709C9180FB90F953
:1001D0009C93A0910470B0910570808582FB882764
:1001E00080F99C9180FB91F99C93A0910470B0914F
:1001F0000570808583FB882780F99C9180FB92F9AC
:100200009C93A0910470B091057080858295817057
:100210009C9180FB93F99C93A0910470B091057020
:10022000808585FB882780F99C9180FB94F99C93BD
:10023000089580910970853008F046C020910070C3
:10024000309101702115310541F021503109209381
:1002500000703093017081E008952CE231E020932A
:100260000070309301708230C9F028F4882341F087
:10027000813081F024C08330A9F08430B9F01FC0F0
:1002800090E29093A604E0E0F4E094E0968398E096
:10029000968315C090E29093A50411C094E09093CA
:1002A00005040DC098E09093050409C090E2909376
:1002B000A604E0E0F4E094E0968398E096838F5FF4
:1002C0008093097081E0089580E00895CF93DF93D3
:1002D000EC01C170DD2780FF06C081FD07C021E071
:1002E0002093450403C021E020934604DC01A47060
:1002F000BB2782FF06C083FD07C022E02093450490
:1003000003C022E020934604FC01E071FF2784FF34
:1003100006C085FD07C024E02093450403C024E007
:1003200020934604AC014074552786FF06C087FD24
:1003300007C028E02093450403C028E0209346042A
:1003400090FF06C091FD07C020E12093A50403C0E3
:1003500020E12093A604209108702617F1F0609305
:100360000870CD2B29F081FF03C021E020934704C2
:10037000AB2B29F083FF03C022E020934704EF2B2F
:1003800029F085FF03C024E020934704452B29F082
:1003900087FF03C088E080934704DF91CF910895E1
:1003A0004115510511F441E050E0FC0120813181FB
:1003B0002115310529F02150310920833183089519
:1003C000FC0140835183FB01908181E0911180E029
:1003D000FB0180830895CF93DF9300D01F92CDB7A8
:1003E000DEB70E94A30020E130E744E150E76BE173
:1003F00070E78AE190E70E94930780E00E949702ED
:10040000789484EF91E089839A831B82E091047051
:10041000F09105708081806E808381E08183E0911E
:100420000270F091037080E991E082839383E12C64
:10043000F12CBB24B39499249394A12C08EC10E0E4
:1004400080910B0A80FF3FC0E0E0FAE08385816085
:100450008387992029F00E941901882389F133C0EC
:100460000115110519F00150110905C084E08093B0
:10047000070408EC10E00E94DC00E0910270F091AB
:10048000037042815381BE016D5F7F4FCE010196A3
:100490000E94D0010E941108C0901070D09011707D
:1004A000B11006C0EC14FD0419F48B81A81659F0A4
:1004B000AB806A2DC6010E9466017601B12C03C093
:1004C000BB24B394912C0E945604BACFE0E1FBE028
:1004D000128613868DE799E08487958793E0908351
:1004E000E0E0F4E080818068808380818F7D80837C
:1004F000808180618083E0E0F8E02CE232E02087B8
:10050000318781E08093E20597838681806C8683C2
:1005100081EE8583109220701092217010921C70D1
:1005200010921D70109222701092257108958823E8
:1005300031F0E0E0F8E08581806E85830895E0E0A9
:10054000F8E085818F71858381E080930E70109231
:100550000D7010920F700895209106703091077001
:100560002827209306703093077088E090E028C019
:10057000209106703091077020FF17C020910670FF
:100580003091077036952795209306703093077049
:10059000209106703091077041E0242740EA34270B
:1005A00020930670309307700AC020910670309136
:1005B0000770369527952093067030930770019742
:1005C0000097B1F608950F931F93CF93DF93109187
:1005D0002571112349F1EC01109225710881E5EA9A
:1005E000F0E7008389818183BE016C5F7F4F4A8180
:1005F0005B8187EA90E70E946F088A819B8102965F
:100600008093A3709093A47010920E7000930208D0
:100610008FEF9FEF8093067090930770802F0E945A
:10062000AC0281E080930F70812FDF91CF911F91F9
:100630000F910895CF93C0912270CC23F1F0E3E2A3
:10064000F0E72081DC012C93218111962C931197E6
:1006500040911E7050911F704450510912964D9355
:100660005C9313974F3F510509F028F465E270E75A
:1006700004960E946F08109222708C2FCF910895DB
:100680008091207090912170039770F1E09120701B
:10069000F0912170EE5DFF48808190E0982F8827CF
:1006A000E0912070F0912170EF5DFF482081822B56
:1006B00020910670309107708217930761F481E0F2
:1006C00080932270809120709091217080931E7091
:1006D00090931F7009C080910B7090910C700196DF
:1006E00080930B7090930C70109220701092217078
:1006F00081E08093257180930E70E0E1FBE08081C2
:100700008E7F808310920D700895E0912070F0919B
:10071000217080910008ED5DFF4880831092257163
:100720008091207090912170892B79F5E091207053
:10073000F0912170ED5DFF488081882349F0E091C0
:100740002070F0912170ED5DFF488081823069F466
:1007500081E080930A708FEF9FEF809306709093F3
:10076000077088E0809307040BC010920A70809194
:100770002070909121700196809320709093217049
:10078000E0E1FBE0808181608083E0E1FBE01286B4
:10079000138686818160868380910A708823C1F0E8
:1007A0008091207090912170029748F0E091207024
:1007B000F0912170EF5DFF4880810E94AC02809132
:1007C00020709091217001968093207090932170F9
:1007D0000895E0E1FBE012861386868181608683BE
:1007E00080818160808310920D70089580911C70CB
:1007F00090911D70019680931C7090931D702091B4
:100800001C7030911D708091A3709091A470281776
:10081000390798F4E0911C70F0911D70EB55FF487A
:10082000808180930208E0911C70F0911D70EB555F
:10083000FF4880810E94AC02089520911C70309185
:100840001D708091A3709091A4702817390739F416
:1008500080910670909107708093020808958091AE
:10086000A3709091A470019620911C7030911D701E
:100870008217930739F480910670909107709093D6
:100880000208089510921C7010921D7010920F7043
:1008900081E080930D70E0E1FBE012861386868193
:1008A0008160868380818160808308958091160BAA
:1008B00080FF07C0E0E1FBE08681816086830E94C3
:1008C00040038091040888232CF480910E708111DC
:1008D0000E9485038091040885FF05C080910F70F8
:1008E00081110E94F6038091040886FF0BC080915D
:1008F0000D70882339F0E0E0F8E08481806484831F
:100900000E94E90308958F929F92AF92BF92CF9277
:10091000DF92EF92FF920F931F93CF93DF93EC013F
:100920002115310509F458C08901169507951695CA
:100930000795169507952830310520F487E0C82ED5
:10094000C21A0BC0C02ECC0CCC0CCC0C8C2D821B34
:100950000F2EF7E0CF2EF02DC80ED12C37C0AD2CC6
:10096000B12C45018FEF881A980AF801FF27CF01B3
:1009700001968A0D9B1D860F971FDC01EC90F12CD0
:100980000C2C02C0EE0CFF1C0A94E2F78FEF90E0F3
:100990000C2C02C0880F991F0A94E2F7EA0DFB1D88
:1009A000E60FF71F9081E8E0F0E0EC19F109292F3C
:1009B00030E002C035952795EA95E2F7D401AC0FF7
:1009C000BD1F8E21282B14962C93D3948D2D90E04F
:1009D0008417950720F203C005960E946F08DF91E7
:1009E000CF911F910F91FF90EF90DF90CF90BF902C
:1009F000AF909F908F900895FC0110821182128217
:100A000013821682178214821582089590E0FC01E9
:100A10003B97E830F10508F043C0E85AFF4F0C94CB
:100A20006908E4E3F1E780819181019680839183F5
:100A30000895E4E3F1E782819381019682839383B1
:100A40000895E4E3F1E78481958101968483958399
:100A50000895E4E3F1E78681978101968683978381
:100A60000895E4E3F1E78085918501968087918779
:100A70000895E4E3F1E78285938501968287938761
:100A80000895E4E3F1E78485958501968487958749
:100A90000895E4E3F1E78685978501968687978731
:100AA0000895CF93DF93EC01898188231CF480E1C2
:100AB0000E940605CE010E94E302DF91CF910895C6
:100AC000CF93DF93EC012C8130E0322F22278D81F0
:100AD000282B8E8190E0982F88274F81842BAC01A2
:100AE000415051094832510588F5A901480F591F55
:100AF0004932510508F5AC015695479556954795ED
:100B0000569547954A835B8387709927892B21F0F7
:100B10004F5F5F4F4A835B834A815B814C83609167
:100B20002A7170912B71CE010E9483048A819B816E
:100B300001968A839B8313C089818068898382E0C0
:100B40008C8381E090E08A839B8309C089818068DF
:100B5000898383E08C8381E090E08A839B83CE014C
:100B60000E945105DF91CF910895CF93DF93EC015F
:100B70002C8130E0322F22278D81282B8E8190E02E
:100B8000982F88274F81842BAC01415051094E3159
:100B9000510588F5A901480F591F4F31510508F536
:100BA000AC015695479556954795569547954A8376
:100BB0005B8387709927892B21F04F5F5F4F4A83B2
:100BC0005B834A815B814C836091267170912771B0
:100BD000CE010E9483048A819B8101968A839B8334
:100BE00013C089818068898382E08C8381E090E0F2
:100BF0008A839B8309C089818068898383E08C8391
:100C000081E090E08A839B83CE010E945105DF91B1
:100C1000CF910895CF92DF92FF920F931F93CF93BE
:100C2000DF93EC012C8130E0322F22278D81282B9D
:100C3000B9018E8190E0982F88274F81842BAC01D9
:100C4000FC0131973A9708F03FC0280F391F2B302D
:100C5000310518F12FC0CF2CD12C8601000F111FA8
:100C60000F5F1F4F260F371F220F331FA0912871D0
:100C7000B0912971A20FB31F11962C9111970C0FEF
:100C80001D1FF8012483F6013196EE0FFF1F2C91F2
:100C9000EC0FFD1F2483F39401C0F12C2F2D30E0C5
:100CA00024173507C0F2880F991F8C8301968A8319
:100CB0009B8313C089818068898382E08C8381E073
:100CC00090E08A839B8309C089818068898383E05F
:100CD0008C8381E090E08A839B83CE010E94510542
:100CE000DF91CF911F910F91FF90DF90CF900895EA
:100CF0000F931F93CF93DF93EC018C8190E0982F9B
:100D000088272D81822B4E8150E0542F44272F813C
:100D1000422B9A01215031092A30310508F5840F00
:100D2000951F0B9798F48A01000F111F6091447171
:100D300070914571A801CE0105960E946F080C8341
:100D4000A8014F5F5F4F4A835B8313C0898180682E
:100D5000898382E08C8381E090E08A839B8309C051
:100D600089818068898383E08C8381E090E08A8335
:100D70009B83CE010E945105DF91CF911F910F916E
:100D80000895FC01248130E0322F22278581282B11
:100D9000B901468150E0542F44278781482B4115E3
:100DA000510521F041158FEF5807F1F569327105B2
:100DB00088F5C90196958795969587959695879517
:100DC000382F330F330F330F231B452B89F0A0919E
:100DD0002A71B0912B71A80FB91F81E090E002C079
:100DE000880F991F2A95E2F79C91892B8C9325C037
:100DF000A0912A71B0912B71A80FB91F81E090E0EA
:100E000002C0880F991F2A95E2F780959C9189234B
:100E10008C9313C081818068818382E0848381E028
:100E200090E08283938309C081818068818383E01D
:100E3000848381E090E082839383CF010E945105F7
:100E40000895CF93DF93EC012C8130E0322F2227DD
:100E50008D81282BB9014E8150E0542F44278F817A
:100E6000482BCA01E88589379105B8F5240F351F4D
:100E70002132310590F52E2F30E0440F551F2417F5
:100E8000350759F524C0FA01E60FF71FEE0FFF1FD3
:100E90002091287130912971E20FF31FDA01AA0F16
:100EA000BB1F1596AC0FBD1F14962C9130E0322F4E
:100EB0002227DA011396AA0FBB1FAC0FBD1F149691
:100EC000AC912A2B208331834F5F5F4F02C040E0FB
:100ED00050E048175907B8F209C0898180688983B2
:100EE00083E08C8381E090E08A839B8384E090E0C0
:100EF0008A839B83CE010E945105DF91CF91089593
:100F0000E4E3F1E7168617861282138214821582B3
:100F10001082118214861586168217821286138615
:100F2000108611860895CF92DF92EF92FF920F9371
:100F30001F93CF93DF936C017B018A01E9010E942B
:100F400066028CE291E70E94FC040E948007C09236
:100F50002A71D0922B71E0922671F0922771009342
:100F6000447110934571C0932871D0932971DF911A
:100F7000CF911F910F91FF90EF90DF90CF90089548
:100F8000CF93DF93EC01ED818E2F90E084319105BA
:100F9000C8F5FC01E05AFF4F0C946908E4E3F1E75F
:100FA000808191819E838F8336C0E4E3F1E7828163
:100FB00093819E838F832FC0E4E3F1E78481958141
:100FC0009E838F8328C0E4E3F1E787818E83868147
:100FD0008F8321C0E4E3F1E781858E8380858F8351
:100FE0001AC0E4E3F1E783858E8382858F8313C083
:100FF000E4E3F1E787858E8386858F830CC00E94AA
:10100000800709C089818068898381E08C8381E0C1
:1010100090E08A839B83CE010E945105DF91CF919E
:101020000895CF93DF93CDB7DEB7C450D140CDBF85
:10103000DEBFCE0101960E941A03882309F442C044
:10104000E4E3F1E7868197810196868397832A817D
:10105000822F90E0FC013197E031F10538F5EC5832
:10106000FF4F0C946908CE0101960E9460052AC0CA
:10107000CE0101960E94B50525C0CE0101960E94C1
:101080000A0620C0CE0101960E9478061BC0CE0140
:1010900001960E94C10616C0CE0101960E94C007AB
:1010A00011C0CE0101960E9421070CC020682A833E
:1010B00081E08D8381E090E08B839C83CE0101965B
:1010C0000E945105CC5FDE4FCDBFDEBFDF91CF91D7
:1010D0000895EE0FFF1F0590F491E02D0994FB0198
:1010E000DC0102C001900D9241505040D8F70895A4
:1010F000DC0128ED209334006C930895F894FFCF21
:081100002C0110701470FFFFB8
:00000001FF
