S00F0000544552435F56322E7372656300
S11300000C9484000C94A1000C94A1000C94A10005
S11300100C94A1000C94A1000C94A1000C94A100D8
S11300200C94A1000C94A1000C94A1000C94A100C8
S11300300C94A1000C94A1000C94A1000C94A100B8
S11300400C94A1000C94A1000C94A1000C94A100A8
S11300500C94A1000C94A1000C94A1000C94A10098
S11300600C94A1000C94A1000C94A1000C94A10088
S11300700C94A1000C94A1000C94A1000C94A10078
S11300800C94A1000C94A1000C94A1000C94A10068
S11300900C94A1000C94A1000C94A1000C94A10058
S11300A00C94A1000C94A1000C94A1000C94A10048
S11300B04F0557055F0567056F0577057F058705BC
S11300C025081C081C081C081C081C081C081C0803
S11300D01C081C081908E807EF07F607FD070408C1
S11300E00B081C081C0812084D08520857085C0825
S11300F06108700870086608700870087008700855
S11301007008700870086B0811241FBECFEFCDBFB4
S1130110DFE7DEBF10E7A0E0B0E7E4E3F1E102C00F
S113012005900D92A630B107D9F721E7A6E0B0E714
S113013001C01D92A034B207E1F70E9415010C948E
S113014098080C940000E0E0F4E080818C688083DF
S11301508481837F8483E0EAF4E080818863808300
S11301608481877C848310926004A0E4B4E08C9141
S11301708F608C9314968C911497807F14968C9333
S113018080E2858365EA80E890E00E94920880918D
S1130190650084FFFCCF60E081E690E00E94920855
S11301A063E080E690E00E9492088091650080FD03
S11301B0FCCFE0E0FAE081E0838311828BE080836E
S11301C080E28093A5040895A0910270B091037019
S11301D0E0E6F4E0808582FB882780F99C9180FB2F
S11301E091F99C93A0910270B091037080858695DB
S11301F081709C9180FB90F99C93A0910270B091C6
S113020003708085829581709C9180FB93F99C9307
S1130210A0910270B0910370808583FB882780F9D8
S11302209C9180FB92F99C9308950E94A300609195
S11302301470709115702CE030E74EE050E7809117
S11302401270909113700E94AD0780E00E94D50255
S11302507894E0910270F09103708081806E8083C5
S113026081E08183E0910270F0910370808180616C
S11302708083D0E00F2EF8EECF2EF3E0DF2EF02DAA
S11302800F2EF8EEEF2EF3E0FF2EF02D0CE211E02E
S1130290C4E080910B0A80FF54C1CC2331F10115D5
S11302A01105F9F001501109C23081F018F4C13080
S11302B089F025C0C33031F0C43009F580E2809361
S11302C0A5041DC084E08093050419C088E08093D0
S11302D0050415C088E08093060480E28093A60498
S11302E00EC0C1500CE211E00AC00150110939F4EA
S11302F084E0809307040E94E40008EC10E0E0E04E
S1130300FAE0838581608387C11119C1D23009F471
S11303108EC028F4DD2361F0D13049F110C1D4300E
S113032009F4C1C008F4B1C0D53009F4E5C007C16F
S1130330E0E4F4E081E0858388E0858380E18093D4
S1130340A50481E0C81AD10809F0F9C080E18093BE
S1130350A60481E0868388E08683E0910270F091B0
S1130360037080818F7180831182D1E0E8C0E091B5
S11303700270F091037080818F718062808311829A
S113038081E0E81AF10861F4E0E4F4E081E08783B5
S113039088E087830F2EF8EEEF2EF3E0FF2EF02D8A
S11303A0A0910270B0910370E0910070F09101701F
S11303B080818695869586959181292F2295220F95
S11303C0207E822B96959695969512968C931297ED
S11303D013969C9320812695269526953181432F4B
S11303E04295440F407E842F822B932F96959695A9
S11303F096950F9709F0A3C08091680482FD9FC071
S11304008091680481FD9BC08091680484FD97C03D
S11304108091680483FD93C0E0E4F4E081E0868386
S113042088E0868380E18093A604D2E088C0E091CE
S11304300270F091037080818F71806480831182D7
S11304408091680481FF0AC081E080934504E091B3
S11304500270F091037080818160808380916804D0
S113046083FF0AC088E080934504E0910270F09114
S113047003708081846080838091680481FF5FC001
S11304808091680483FD5AC05AC080E18093A5041A
S1130490E0910270F091037080818F718066808397
S11304A01182D4E04CC0E0910270F091037080811D
S11304B08F718068808311828091680482FD3FC0BF
S11304C08091680481FD3BC08091680484FD37C03D
S11304D08091680483FD33C0E0910270F091037051
S11304E080818E7F8083E0910270F091037080811F
S11304F08B7F8083D5E023C0E0E4F4E081E0868351
S113050088E0868380E18093A604E0910270F091F4
S11305100370808182608083E0910270F0910370A7
S1130520808188608083E0910270F0910370808103
S11305308F71806A80831182D1E001C0D3E00E9470
S11305402B080E949404A5CEE0E1FBE012861386FA
S11305508DE799E08487958793E09083E0E0F4E069
S113056080818068808380818F7D808380818061A9
S11305708083E0E0F8E02CE232E02087318781E0FC
S11305808093E20597838681806C868381EE8583E0
S113059010921A7010921B701092167010921770AD
S11305A010921C7010921F710895882331F0E0E0BE
S11305B0F8E08581806E85830895E0E0F8E0858128
S11305C08F71858381E080930A7010920970109274
S11305D00B700895209104703091057028272093A2
S11305E004703093057088E090E028C02091047076
S11305F03091057020FF17C0209104703091057070
S113060036952795209304703093057020910470DB
S11306103091057041E0242740EA34272093047088
S1130620309305700AC0209104703091057036959E
S11306302795209304703093057001970097B1F6C5
S113064008950F931F93CF93DF9310911F7111237C
S113065049F1EC0110921F710881EFE9F0E7008382
S113066089818183BE016C5F7F4F4A815B8181EA0E
S113067090E70E9489088A819B81029680939D70ED
S113068090939E7010920A70009302088FEF9FEF70
S11306908093047090930570802F0E94EA0281E099
S11306A080930B70812FDF91CF911F910F9108954B
S11306B0CF93C0911C70CC23F1F0EDE1F0E72081E1
S11306C0DC012C93218111962C9311974091187081
S11306D0509119704450510912964D935C9313979D
S11306E04F3F510509F028F46FE170E704960E942A
S11306F0890810921C708C2FCF91089580911A70E4
S113070090911B70039770F1E0911A70F0911B7037
S1130710E45EFF48808190E0982F8827E0911A706A
S1130720F0911B70E55EFF482081822B20910470BC
S1130730309105708217930761F481E080931C70F7
S113074080911A7090911B70809318709093197017
S113075009C080910770909108700196809307708A
S11307609093087010921A7010921B7081E080931D
S11307701F7180930A70E0E1FBE080818E7F8083AB
S1130780109209700895E0911A70F0911B70809195
S11307900008E35EFF48808310921F7180911A70F5
S11307A090911B70892B79F5E0911A70F0911B7070
S11307B0E35EFF488081882349F0E0911A70F0914C
S11307C01B70E35EFF488081823069F481E080938E
S11307D006708FEF9FEF809304709093057088E00C
S11307E0809307040BC01092067080911A70909148
S11307F01B70019680931A7090931B70E0E1FBE0EC
S1130800808181608083E0E1FBE01286138686812B
S113081081608683809106708823C1F080911A706C
S113082090911B70029748F0E0911A70F0911B7040
S1130830E55EFF4880810E94EA0280911A709091DF
S11308401B70019680931A7090931B700895E0E1D9
S1130850FBE01286138686818160868380818160B5
S1130860808310920970089580911670909117708A
S113087001968093167090931770209116703091A2
S1130880177080919D7090919E702817390798F485
S1130890E0911670F0911770E156FF4880818093C3
S11308A00208E0911670F0911770E156FF488081BC
S11308B00E94EA0208952091167030911770809179
S11308C09D7090919E702817390739F480910470B7
S11308D09091057080930208089580919D70909185
S11308E09E700196209116703091177082179307AD
S11308F039F48091047090910570909302080895E2
S1130900109216701092177010920B7081E0809301
S11309100970E0E1FBE0128613868681816086839C
S113092080818160808308958091160B80FF07C0C9
S1130930E0E1FBE08681816086830E947E038091F2
S1130940040888232CF480910A7081110E94C30347
S11309508091040885FF05C080910B7081110E946D
S113096034048091040886FF0BC0809109708823A9
S113097039F0E0E0F8E08481806484830E942704F5
S113098008958F929F92AF92BF92CF92DF92EF928F
S1130990FF920F931F93CF93DF93EC012115310541
S11309A009F458C08901169507951695079516956B
S11309B007952830310520F487E0C82EC21A0BC0F1
S11309C0C02ECC0CCC0CCC0C8C2D821B0F2EF7E043
S11309D0CF2EF02DC80ED12C37C0AD2CB12C450133
S11309E08FEF881A980AF801FF27CF0101968A0D24
S11309F09B1D860F971FDC01EC90F12C0C2C02C080
S1130A00EE0CFF1C0A94E2F78FEF90E00C2C02C06E
S1130A10880F991F0A94E2F7EA0DFB1DE60FF71FF2
S1130A209081E8E0F0E0EC19F109292F30E002C0F0
S1130A3035952795EA95E2F7D401AC0FBD1F8E21B9
S1130A40282B14962C93D3948D2D90E0841795071E
S1130A5020F203C005960E948908DF91CF911F916F
S1130A600F91FF90EF90DF90CF90BF90AF909F9049
S1130A708F900895FC0110821182128213821682D3
S1130A80178214821582089590E0FC013B97E830A8
S1130A90F10508F043C0E85AFF4F0C948308EEE2D6
S1130AA0F1E7808191810196808391830895EEE23C
S1130AB0F1E7828193810196828393830895EEE224
S1130AC0F1E7848195810196848395830895EEE20C
S1130AD0F1E7868197810196868397830895EEE2F4
S1130AE0F1E7808591850196808791870895EEE2EC
S1130AF0F1E7828593850196828793870895EEE2D4
S1130B00F1E7848595850196848795870895EEE2BB
S1130B10F1E7868597850196868797870895CF9311
S1130B20DF93EC01898188231CF480E10E94440551
S1130B30CE010E942103DF91CF910895CF93DF93DB
S1130B40EC012C8130E0322F22278D81282B8E81DD
S1130B5090E0982F88274F81842BAC014150510994
S1130B604832510588F5A901480F591F49325105EA
S1130B7008F5AC0156954795569547955695479572
S1130B804A835B8387709927892B21F04F5F5F4FDE
S1130B904A835B834A815B814C83609124717091A9
S1130BA02571CE010E94C1048A819B8101968A83AA
S1130BB09B8313C089818068898382E08C8381E070
S1130BC090E08A839B8309C089818068898383E05C
S1130BD08C8381E090E08A839B83CE010E948F0501
S1130BE0DF91CF910895CF93DF93EC012C8130E016
S1130BF0322F22278D81282B8E8190E0982F8827F1
S1130C004F81842BAC01415051094E31510588F577
S1130C10A901480F591F4F31510508F5AC015695EC
S1130C20479556954795569547954A835B838770B4
S1130C309927892B21F04F5F5F4F4A835B834A8159
S1130C405B814C836091207170912171CE010E946F
S1130C50C1048A819B8101968A839B8313C0898105
S1130C608068898382E08C8381E090E08A839B831F
S1130C7009C089818068898383E08C8381E090E066
S1130C808A839B83CE010E948F05DF91CF910895C3
S1130C90CF92DF92FF920F931F93CF93DF93EC01D8
S1130CA02C8130E0322F22278D81282BB9018E81AF
S1130CB090E0982F88274F81842BAC01FC01319759
S1130CC03A9708F03FC0280F391F2B30310518F12F
S1130CD02FC0CF2CD12C8601000F111F0F5F1F4F87
S1130CE0260F371F220F331FA0912271B091237159
S1130CF0A20FB31F11962C9111970C0F1D1FF80111
S1130D002483F6013196EE0FFF1F2C91EC0FFD1F8B
S1130D102483F39401C0F12C2F2D30E024173507E0
S1130D20C0F2880F991F8C8301968A839B8313C01A
S1130D3089818068898382E08C8381E090E08A8362
S1130D409B8309C089818068898383E08C8381E0E7
S1130D5090E08A839B83CE010E948F05DF91CF911F
S1130D601F910F91FF90DF90CF9008950F931F93E1
S1130D70CF93DF93EC018C8190E0982F88272D810D
S1130D80822B4E8150E0542F44272F81422B9A010D
S1130D90215031092A30310508F5840F951F0B972E
S1130DA098F48A01000F111F60913E7170913F7198
S1130DB0A801CE0105960E9489080C83A8014F5F03
S1130DC05F4F4A835B8313C089818068898382E093
S1130DD08C8381E090E08A839B8309C08981806849
S1130DE0898383E08C8381E090E08A839B83CE01B6
S1130DF00E948F05DF91CF911F910F910895FC01FF
S1130E00248130E0322F22278581282BB9014681A5
S1130E1050E0542F44278781482B4115510521F078
S1130E2041158FEF5807F1F56932710588F5C9014D
S1130E30969587959695879596958795382F330F30
S1130E40330F330F231B452B89F0A0912471B091EC
S1130E502571A80FB91F81E090E002C0880F991F87
S1130E602A95E2F79C91892B8C9325C0A09124713B
S1130E70B0912571A80FB91F81E090E002C0880FDE
S1130E80991F2A95E2F780959C9189238C9313C02E
S1130E9081818068818382E0848381E090E0828321
S1130EA0938309C081818068818383E0848381E0A6
S1130EB090E082839383CF010E948F050895CF939E
S1130EC0DF93EC018C8190E0982F88272D81822B71
S1130ED04E8150E0542F44272F81422B493751052E
S1130EE0B0F49C01240F351F2132310580F4209188
S1130EF0227130912371880F991F440F551FBE0131
S1130F00685F7F4F820F931F0E94890809C08981FF
S1130F108068898383E08C8381E090E08A839B836B
S1130F2084E090E08A839B83CE010E948F05DF9149
S1130F30CF910895EEE2F1E71686178612821382A6
S1130F4014821582108211821486158616821782E5
S1130F5012861386108611860895CF92DF92EF923F
S1130F60FF920F931F93CF93DF936C017B018A0150
S1130F70E9010E94A40286E291E70E943A050E94D8
S1130F809A07C0922471D0922571E0922071F09258
S1130F90217100933E7110933F71C0932271D093DD
S1130FA02371DF91CF911F910F91FF90EF90DF900C
S1130FB0CF900895CF93DF93EC01ED818E2F90E0D5
S1130FC084319105C8F5FC01E05AFF4F0C94830865
S1130FD0EEE2F1E7808191819E838F8336C0EEE259
S1130FE0F1E7828193819E838F832FC0EEE2F1E744
S1130FF0848195819E838F8328C0EEE2F1E7878107
S11310008E8386818F8321C0EEE2F1E781858E8312
S113101080858F831AC0EEE2F1E783858E83828513
S11310208F8313C0EEE2F1E787858E8386858F83F5
S11310300CC00E949A0709C089818068898381E075
S11310408C8381E090E08A839B83CE010E948F058C
S1131050DF91CF910895CF93DF93CDB7DEB7C4501E
S1131060D140CDBFDEBFCE0101960E945803882334
S113107009F442C0EEE2F1E7868197810196868306
S113108097832A81822F90E0FC013197E031F105AA
S113109038F5EC58FF4F0C948308CE0101960E945A
S11310A09E052AC0CE0101960E94F30525C0CE01FB
S11310B001960E94480620C0CE0101960E94B60601
S11310C01BC0CE0101960E94FF0616C0CE010196F8
S11310D00E94DA0711C0CE0101960E945F070CC07E
S11310E020682A8381E08D8381E090E08B839C8358
S11310F0CE0101960E948F05CC5FDE4FCDBFDEBFCF
S1131100DF91CF910895EE0FFF1F0590F491E02D2C
S11311100994FB01DC0102C001900D924150504042
S1131120D8F70895DC0128ED209334006C930895DA
S1071130F894FFCF5D
S10911340C700E70FFFFB9
S9030000FC
