S00F0000544552435F56322E7372656300
S11300000C9484000C94A1000C94A1000C94A10005
S11300100C94A1000C94A1000C94A1000C94A100D8
S11300200C94A1000C94A1000C94A1000C94A100C8
S11300300C94A1000C94A1000C94A1000C94A100B8
S11300400C94A1000C94A1000C94A1000C94A100A8
S11300500C94A1000C94A1000C94A1000C94A10098
S11300600C94A1000C94A1000C94A1000C94A10088
S11300700C94A1000C94A1000C94A1000C94A10078
S11300800C94A1000C94A1000C94A1000C94A10068
S11300900C94A1000C94A1000C94A1000C94A10058
S11300A00C94A1000C94A1000C94A1000C94A10048
S11300B0E103E903F103F903010409041104190438
S11300C0B706AE06AE06AE06AE06AE06AE06AE0683
S11300D0AE06AE06AB067A06810688068F0696063D
S11300E09D06AE06AE06A406DF06E406E906EE06A5
S11300F0F30602070207F8060207020702070207CF
S1130100020702070207FD0611241FBECFEFCDBF71
S1130110DFE7DEBF10E7A0E0B0E7E8E5FEE002C0FD
S113012005900D92A230B107D9F721E7A2E0B0E71C
S113013001C01D92A034B207E1F70E94A3000C9401
S11301402A070C940000E0E0F4E080818C6880834E
S11301508481837F8483E0EAF4E080818863808300
S11301608481877C848310926004A0E4B4E08C9141
S11301708F608C9314968C911497807F14968C9333
S113018080E2858365EA80E890E00E9424078091FC
S1130190650084FFFCCF60E081E690E00E942407C4
S11301A063E080E690E00E9424078091650080FD72
S11301B0FCCFE0E0FAE081E0838311828BE080836E
S11301C080E28093A504609114707091157028E00A
S11301D030E74CE050E780911270909113700E94C8
S11301E03F0680E00E9464017894CCE2D1E014E000
S11301F080910B0A80FF34C0112321F12097F1F084
S11302002197123081F018F4113089F022C0133094
S113021031F01430F1F480E28093A5041AC084E034
S11302208093050416C088E08093050412C088E01A
S11302308093060480E28093A6040BC01150CCE2A4
S1130240D1E007C0219729F484E080930704C8EC27
S1130250D0E0E0E0FAE08385816083870E94BD06F8
S11302600E942603C5CFE0E1FBE0128613868DE7EA
S113027099E08487958793E09083E0E0F4E08081BF
S11302808068808380818F7D80838081806180838A
S1130290E0E0F8E02CE232E02087318781E08093CF
S11302A0E20597838681806C868381EE8583109234
S11302B01A7010921B701092167010921770109290
S11302C01C7010921F710895882331F0E0E0F8E06B
S11302D08581806E85830895E0E0F8E085818F71E3
S11302E0858381E0809306701092057010920770E8
S11302F00895209100703091017028272093007098
S11303003093017088E090E028C020910070309113
S1130310017020FF17C02091007030910170369554
S113032027952093007030930170209100703091D4
S1130330017041E0242740EA342720930070309371
S113034001700AC020910070309101703695279594
S1130350209300703093017001970097B1F60895CF
S11303600F931F93CF93DF9310911F71112349F1C2
S1130370EC0110921F710881EFE9F0E70083898195
S11303808183BE016C5F7F4F4A815B8181EA90E784
S11303900E941B078A819B81029680939D70909393
S11303A09E7010920670009302088FEF9FEF809367
S11303B0007090930170802F0E94790181E08093F6
S11303C00770812FDF91CF911F910F910895CF93E3
S11303D0C0911C70CC23F1F0EDE1F0E72081DC0149
S11303E02C93218111962C93119740911870509160
S11303F019704450510912964D935C9313974F3FD3
S1130400510509F028F46FE170E704960E941B0778
S113041010921C708C2FCF91089580911A70909136
S11304201B70039770F1E0911A70F0911B70E45EF9
S1130430FF48808190E0982F8827E0911A70F0910E
S11304401B70E55EFF482081822B20910070309163
S113045001708217930761F481E080931C7080918E
S11304601A7090911B70809318709093197009C042
S1130470809103709091047001968093037090931F
S1130480047010921A7010921B7081E080931F7197
S113049080930670E0E1FBE080818E7F8083109280
S11304A005700895E0911A70F0911B708091000816
S11304B0E35EFF48808310921F7180911A709091BF
S11304C01B70892B79F5E0911A70F0911B70E35E33
S11304D0FF488081882349F0E0911A70F0911B70E5
S11304E0E35EFF488081823069F481E0809302708A
S11304F08FEF9FEF809300709093017088E080935A
S113050007040BC01092027080911A7090911B70B6
S1130510019680931A7090931B70E0E1FBE0808158
S113052081608083E0E1FBE012861386868181602E
S11305308683809102708823C1F080911A70909113
S11305401B70029748F0E0911A70F0911B70E55E01
S1130550FF4880810E94790180911A7090911B70EC
S1130560019680931A7090931B700895E0E1FBE06C
S11305701286138686818160868380818160808370
S113058088E0809307041092057008958091167096
S11305909091177001968093167090931770209124
S11305A016703091177080919D7090919E702817ED
S11305B0390798F4E0911670F0911770E156FF48EE
S11305C0808180930208E0911670F0911770E156D3
S11305D0FF4880810E94790108952091167030911E
S11305E0177080919D7090919E702817390739F487
S11305F08091007090910170809302080895809119
S11306009D7090919E700196209116703091177094
S11306108217930739F48091007090910170909340
S113062002080895109216701092177010920770B5
S113063081E080930570E0E1FBE0128613868681F9
S11306408160868380818160808308958091160B08
S113065080FF07C0E0E1FBE08681816086830E9421
S11306600D028091040888232CF480910670811176
S11306700E9452028091040885FF05C08091077092
S113068081110E94C6028091040886FF0BC08091EC
S11306900570882339F0E0E0F8E084818064848385
S11306A00E94B60208958F929F92AF92BF92CF920A
S11306B0DF92EF92FF920F931F93CF93DF93EC019E
S11306C02115310509F458C0890116950795169529
S11306D00795169507952830310520F487E0C82E34
S11306E0C21A0BC0C02ECC0CCC0CCC0C8C2D821B93
S11306F00F2EF7E0CF2EF02DC80ED12C37C0AD2C25
S1130700B12C45018FEF881A980AF801FF27CF0111
S113071001968A0D9B1D860F971FDC01EC90F12C2E
S11307200C2C02C0EE0CFF1C0A94E2F78FEF90E051
S11307300C2C02C0880F991F0A94E2F7EA0DFB1DE6
S1130740E60FF71F9081E8E0F0E0EC19F109292F9A
S113075030E002C035952795EA95E2F7D401AC0F55
S1130760BD1F8E21282B14962C93D3948D2D90E0AD
S11307708417950720F203C005960E941B07DF919A
S1130780CF911F910F91FF90EF90DF90CF90BF908A
S1130790AF909F908F900895FC0110821182128275
S11307A013821682178214821582089590E0FC0148
S11307B03B97E830F10508F043C0E85AFF4F0C942A
S11307C01507EEE2F1E780819181019680839183A0
S11307D00895EEE2F1E78281938101968283938307
S11307E00895EEE2F1E784819581019684839583EF
S11307F00895EEE2F1E786819781019686839783D7
S11308000895EEE2F1E780859185019680879187CE
S11308100895EEE2F1E782859385019682879387B6
S11308200895EEE2F1E7848595850196848795879E
S11308300895EEE2F1E78685978501968687978786
S11308400895CF93DF93EC01898188231CF480E120
S11308500E94D603CE010E94B001DF91CF9108958A
S1130860CF93DF93EC012C8130E0322F22278D814E
S1130870282B8E8190E0982F88274F81842BAC0100
S1130880415051094832510588F5A901480F591FB3
S11308904932510508F5AC0156954795569547954B
S11308A0569547954A835B8387709927892B21F056
S11308B04F5F5F4F4A835B834A815B814C836091C6
S11308C0247170912571CE010E9453038A819B810A
S11308D001968A839B8313C089818068898382E01F
S11308E08C8381E090E08A839B8309C0898180683E
S11308F0898383E08C8381E090E08A839B83CE01AB
S11309000E942104DF91CF910895CF93DF93EC01EE
S11309102C8130E0322F22278D81282B8E8190E08C
S1130920982F88274F81842BAC01415051094E31B7
S1130930510588F5A901480F591F4F31510508F594
S1130940AC015695479556954795569547954A83D4
S11309505B8387709927892B21F04F5F5F4F4A8310
S11309605B834A815B814C8360912071709121711A
S1130970CE010E9453038A819B8101968A839B83C3
S113098013C089818068898382E08C8381E090E050
S11309908A839B8309C089818068898383E08C83EF
S11309A081E090E08A839B83CE010E942104DF9141
S11309B0CF910895CF92DF92FF920F931F93CF931D
S11309C0DF93EC012C8130E0322F22278D81282BFC
S11309D0B9018E8190E0982F88274F81842BAC0138
S11309E0FC0131973A9708F03FC0280F391F2B308C
S11309F0310518F12FC0CF2CD12C8601000F111F07
S1130A000F5F1F4F260F371F220F331FA091227134
S1130A10B0912371A20FB31F11962C9111970C0F53
S1130A201D1FF8012483F6013196EE0FFF1F2C9150
S1130A30EC0FFD1F2483F39401C0F12C2F2D30E023
S1130A4024173507C0F2880F991F8C8301968A8377
S1130A509B8313C089818068898382E08C8381E0D1
S1130A6090E08A839B8309C089818068898383E0BD
S1130A708C8381E090E08A839B83CE010E942104D1
S1130A80DF91CF911F910F91FF90DF90CF90089548
S1130A900F931F93CF93DF93EC018C8190E0982FF9
S1130AA088272D81822B4E8150E0542F44272F819B
S1130AB0422B9A01215031092A30310508F5840F5F
S1130AC0951F0B9798F48A01000F111F60913E71D6
S1130AD070913F71A801CE0105960E941B070C83FB
S1130AE0A8014F5F5F4F4A835B8313C0898180688D
S1130AF0898382E08C8381E090E08A839B8309C0B0
S1130B0089818068898383E08C8381E090E08A8393
S1130B109B83CE010E942104DF91CF911F910F91FD
S1130B200895FC01248130E0322F22278581282B6F
S1130B30B901468150E0542F44278781482B411541
S1130B40510521F041158FEF5807F1F56932710510
S1130B5088F5C90196958795969587959695879575
S1130B60382F330F330F330F231B452B89F0A091FC
S1130B702471B0912571A80FB91F81E090E002C0E3
S1130B80880F991F2A95E2F79C91892B8C9325C095
S1130B90A0912471B0912571A80FB91F81E090E054
S1130BA002C0880F991F2A95E2F780959C918923AA
S1130BB08C9313C081818068818382E0848381E087
S1130BC090E08283938309C081818068818383E07C
S1130BD0848381E090E082839383CF010E94210487
S1130BE00895CF93DF93EC018C8190E0982F8827B0
S1130BF02D81822B4E8150E0542F44272F81422B8C
S1130C0049375105B0F49C01240F351F21323105B9
S1130C1080F42091227130912371880F991F440F21
S1130C20551FBE01685F7F4F820F931F0E941B07F1
S1130C3009C089818068898383E08C8381E090E0A6
S1130C408A839B8384E090E08A839B83CE010E9405
S1130C502104DF91CF910895EEE2F1E7168617861D
S1130C6012821382148215821082118214861586D0
S1130C701682178212861386108611860895CF92E3
S1130C80DF92EF92FF920F931F93CF93DF936C0148
S1130C907B018A01E9010E94330186E291E70E9407
S1130CA0CC030E942C06C0922471D0922571E0924C
S1130CB02071F092217100933E7110933F71C093A3
S1130CC02271D0932371DF91CF911F910F91FF90E7
S1130CD0EF90DF90CF900895CF93DF93EC01ED81F7
S1130CE08E2F90E084319105C8F5FC01E05AFF4F46
S1130CF00C941507EEE2F1E7808191819E838F8346
S1130D0036C0EEE2F1E7828193819E838F832FC008
S1130D10EEE2F1E7848195819E838F8328C0EEE221
S1130D20F1E787818E8386818F8321C0EEE2F1E72C
S1130D3081858E8380858F831AC0EEE2F1E78385F7
S1130D408E8382858F8313C0EEE2F1E787858E83DD
S1130D5086858F830CC00E942C0609C08981806817
S1130D60898381E08C8381E090E08A839B83CE0138
S1130D700E942104DF91CF910895CF93DF93CDB7E3
S1130D80DEB7C450D140CDBFDEBFCE0101960E9474
S1130D90E701882309F442C0EEE2F1E786819781F6
S1130DA00196868397832A81822F90E0FC013197F4
S1130DB0E031F10538F5EC58FF4F0C941507CE01DE
S1130DC001960E9430042AC0CE0101960E94850437
S1130DD025C0CE0101960E94DA0420C0CE010196FE
S1130DE00E9448051BC0CE0101960E94910516C0C1
S1130DF0CE0101960E946C0611C0CE0101960E949C
S1130E00F1050CC020682A8381E08D8381E090E0A5
S1130E108B839C83CE0101960E942104CC5FDE4F1C
S1130E20CDBFDEBFDF91CF910895EE0FFF1F059078
S1130E30F491E02D0994FB01DC0102C001900D92B4
S1130E4041505040D8F70895DC0128ED2093340038
S10B0E506C930895F894FFCFA0
S1050E58FFFF96
S9030000FC
