:100000000C9484000C94A1000C94A1000C94A10009
:100010000C94A1000C94A1000C94A1000C94A100DC
:100020000C94A1000C94A1000C94A1000C94A100CC
:100030000C94A1000C94A1000C94A1000C94A100BC
:100040000C94A1000C94A1000C94A1000C94A100AC
:100050000C94A1000C94A1000C94A1000C94A1009C
:100060000C94A1000C94A1000C94A1000C94A1008C
:100070000C94A1000C94A1000C94A1000C94A1007C
:100080000C94A1000C94A1000C94A1000C94A1006C
:100090000C94A1000C94A1000C94A1000C94A1005C
:1000A0000C94A1000C94A1000C94A1000C94A1004C
:1000B000F104F904010509051105190521052905B2
:1000C000C707BE07BE07BE07BE07BE07BE07BE07FF
:1000D000BE07BE07BB078A07910798079F07A607B9
:1000E000AD07BE07BE07B407EF07F407F907FE0721
:1000F0000308120812080808120812081208120849
:100100001208120812080D0811241FBECFEFCDBF30
:10011000DFE7DEBF10E7A0E0B0E7E8E7F0E102C00C
:1001200005900D92A630B107D9F721E7A6E0B0E718
:1001300001C01D92AE33B207E1F70E9415010C9485
:100140003A080C940000E0E0F4E080818C68808341
:100150008481837F8483E0EAF4E080818863808304
:100160008481877C848310926004A0E4B4E08C9145
:100170008F608C9314968C911497807F14968C9337
:1001800080E2858365EA80E890E00E9434088091EF
:10019000650084FFFCCF60E081E690E00E943408B7
:1001A00063E080E690E00E9434088091650080FD65
:1001B000FCCFE0E0FAE081E0838311828BE0808372
:1001C00080E28093A5040895A0910270B09103701D
:1001D000E0E6F4E0808582FB882780F99C9180FB33
:1001E00091F99C93A0910270B091037080858695DF
:1001F00081709C9180FB90F99C93A0910270B091CA
:1002000003708085829581709C9180FB93F99C930B
:10021000A0910270B0910370808583FB882780F9DC
:100220009C9180FB92F99C9308950E94A300609199
:100230001270709113702CE030E74EE050E780911F
:100240001070909111700E944F0780E00E94770219
:100250007894E0910270F091037011820F2EF8EE05
:10026000EF2EF3E0FF2EF02D0CE211E0C4E08091C0
:100270000B0A80FF08C1CC2331F101151105F9F0FB
:1002800001501109C23081F018F4C13089F025C045
:10029000C33031F0C43009F580E28093A5041DC05D
:1002A00084E08093050419C088E08093050415C09C
:1002B00088E08093060480E28093A6040EC0C150BB
:1002C0000CE211E00AC00150110939F484E0809376
:1002D00007040E94E40008EC10E0C111CDC0E091D9
:1002E0000270F09103708181823009F459C028F4C2
:1002F000882361F0813051F1BFC0843009F47FC0A0
:1003000008F476C0853009F49CC0B6C0A0E4B4E01F
:1003100081E015968C93159788E015968C93159728
:1003200080E18093A50481E0E81AF10809F0A4C0F7
:1003300080E18093A60481E016968C93169788E05E
:1003400016968C9381818F5F818396C0E0910070B7
:10035000F091017080818770886080831182809124
:10036000680482FD89C08091680481FD85C0809108
:10037000680484FD81C08091680483FD7DC0E0E451
:10038000F4E081E0868388E0868380E18093A604A0
:10039000E0910270F091037081818F5F81836CC066
:1003A0008091680481FF06C081E0809345048081CC
:1003B000816080838091680483FF0AC088E0809315
:1003C0004504E0910270F091037080818460808325
:1003D0008091680481FF50C08091680483FF4CC005
:1003E000E0910270F091037081818F5F818344C03E
:1003F00080E18093A50481818F5F81833DC08091DE
:10040000680482FD39C08091680481FD35C0809107
:10041000680484FD31C08091680483FD2DC0808113
:100420008E7F8083E0910270F091037080818B7FDA
:100430008083E0910270F091037081818F5F8183EE
:100440001BC0A0E4B4E081E016968C93169798E068
:1004500016969C9390E19093A6049081926090836D
:10046000E0910270F0910370908198609083E09128
:100470000270F09103708183E0E0FAE0838581608F
:1004800083870E94CD070E943604F1CEE0E1FBE0B5
:10049000128613868DE799E08487958793E0908391
:1004A000E0E0F4E080818068808380818F7D8083BC
:1004B000808180618083E0E0F8E02CE232E02087F8
:1004C000318781E08093E20597838681806C868303
:1004D00081EE85831092187010921970109214702A
:1004E0001092157010921A7010921D710895882341
:1004F00031F0E0E0F8E08581806E85830895E0E0EA
:10050000F8E085818F71858381E080930A70109275
:10051000097010920B70089520910470309105704D
:100520002827209304703093057088E090E028C05D
:10053000209104703091057020FF17C02091047045
:10054000309105703695279520930470309305708F
:10055000209104703091057041E0242740EA34274F
:1005600020930470309305700AC02091047030917C
:100570000570369527952093047030930570019788
:100580000097B1F608950F931F93CF93DF931091C7
:100590001D71112349F1EC0110921D710881EDE9E3
:1005A000F0E7008389818183BE016C5F7F4F4A81C0
:1005B0005B818FE990E70E942B088A819B810296DC
:1005C00080939B7090939C7010920A700093020825
:1005D0008FEF9FEF8093047090930570802F0E949F
:1005E0008C0281E080930B70812FDF91CF911F915E
:1005F0000F910895CF93C0911A70CC23F1F0EBE1E5
:10060000F0E72081DC012C93218111962C93119726
:1006100040911670509117704450510912964D93A5
:100620005C9313974F3F510509F028F46DE170E793
:1006300004960E942B0810921A708C2FCF91089567
:100640008091187090911970039770F1E091187073
:10065000F0911970E65EFF48808190E0982F88271E
:10066000E0911870F0911970E75EFF482081822BAD
:1006700020910470309105708217930761F481E036
:1006800080931A70809118709091197080931670F1
:100690009093177009C0809107709091087001962F
:1006A00080930770909308701092187010921970D0
:1006B00081E080931D7180930A70E0E1FBE080810E
:1006C0008E7F8083109209700895E0911870F091E8
:1006D000197080910008E55EFF48808310921D71BB
:1006E0008091187090911970892B79F5E0911870AC
:1006F000F0911970E55EFF488081882349F0E09110
:100700001870F0911970E55EFF488081823069F4BD
:1007100081E0809306708FEF9FEF80930470909339
:10072000057088E0809307040BC0109206708091DA
:1007300018709091197001968093187090931970A9
:10074000E0E1FBE0808181608083E0E1FBE01286F4
:100750001386868181608683809106708823C1F02C
:100760008091187090911970029748F0E09118707C
:10077000F0911970E75EFF4880810E948C028091A1
:100780001870909119700196809318709093197059
:100790000895E0E1FBE012861386868181608683FE
:1007A0008081816080831092097008958091147017
:1007B000909115700196809314709093157020910C
:1007C00014703091157080919B7090919C702817D7
:1007D000390798F4E0911470F0911570E356FF48D2
:1007E000808180930208E0911470F0911570E356B7
:1007F000FF4880810E948C020895209114703091EE
:10080000157080919B7090919C702817390739F46E
:1008100080910470909105708093020808958091F2
:100820009B7090919C70019620911470309115707E
:100830008217930739F4809104709091057090931A
:1008400002080895109214701092157010920B7097
:1008500081E080930970E0E1FBE0128613868681D7
:100860008160868380818160808308958091160BEA
:1008700080FF07C0E0E1FBE08681816086830E9403
:1008800020038091040888232CF480910A70811140
:100890000E9465038091040885FF05C080910B705C
:1008A00081110E94D6038091040886FF0BC08091BD
:1008B0000970882339F0E0E0F8E084818064848363
:1008C0000E94C90308958F929F92AF92BF92CF92D8
:1008D000DF92EF92FF920F931F93CF93DF93EC0180
:1008E0002115310509F458C089011695079516950B
:1008F0000795169507952830310520F487E0C82E16
:10090000C21A0BC0C02ECC0CCC0CCC0C8C2D821B74
:100910000F2EF7E0CF2EF02DC80ED12C37C0AD2C06
:10092000B12C45018FEF881A980AF801FF27CF01F3
:1009300001968A0D9B1D860F971FDC01EC90F12C10
:100940000C2C02C0EE0CFF1C0A94E2F78FEF90E033
:100950000C2C02C0880F991F0A94E2F7EA0DFB1DC8
:10096000E60FF71F9081E8E0F0E0EC19F109292F7C
:1009700030E002C035952795EA95E2F7D401AC0F37
:10098000BD1F8E21282B14962C93D3948D2D90E08F
:100990008417950720F203C005960E942B08DF916B
:1009A000CF911F910F91FF90EF90DF90CF90BF906C
:1009B000AF909F908F900895FC0110821182128257
:1009C00013821682178214821582089590E0FC012A
:1009D0003B97E830F10508F043C0E85AFF4F0C940C
:1009E0002508ECE2F1E78081918101968083918373
:1009F0000895ECE2F1E782819381019682839383EB
:100A00000895ECE2F1E784819581019684839583D2
:100A10000895ECE2F1E786819781019686839783BA
:100A20000895ECE2F1E780859185019680879187B2
:100A30000895ECE2F1E7828593850196828793879A
:100A40000895ECE2F1E78485958501968487958782
:100A50000895ECE2F1E7868597850196868797876A
:100A60000895CF93DF93EC01898188231CF480E102
:100A70000E94E604CE010E94C302DF91CF91089547
:100A8000CF93DF93EC012C8130E0322F22278D8130
:100A9000282B8E8190E0982F88274F81842BAC01E2
:100AA000415051094832510588F5A901480F591F95
:100AB0004932510508F5AC0156954795569547952D
:100AC000569547954A835B8387709927892B21F038
:100AD0004F5F5F4F4A835B834A815B814C836091A8
:100AE000227170912371CE010E9463048A819B81DF
:100AF00001968A839B8313C089818068898382E001
:100B00008C8381E090E08A839B8309C0898180681F
:100B1000898383E08C8381E090E08A839B83CE018C
:100B20000E943105DF91CF910895CF93DF93EC01BF
:100B30002C8130E0322F22278D81282B8E8190E06E
:100B4000982F88274F81842BAC01415051094E3199
:100B5000510588F5A901480F591F4F31510508F576
:100B6000AC015695479556954795569547954A83B6
:100B70005B8387709927892B21F04F5F5F4F4A83F2
:100B80005B834A815B814C8360911E7170911F7100
:100B9000CE010E9463048A819B8101968A839B8394
:100BA00013C089818068898382E08C8381E090E032
:100BB0008A839B8309C089818068898383E08C83D1
:100BC00081E090E08A839B83CE010E943105DF9112
:100BD000CF910895CF92DF92FF920F931F93CF93FF
:100BE000DF93EC012C8130E0322F22278D81282BDE
:100BF000B9018E8190E0982F88274F81842BAC011A
:100C0000FC0131973A9708F03FC0280F391F2B306D
:100C1000310518F12FC0CF2CD12C8601000F111FE8
:100C20000F5F1F4F260F371F220F331FA091207118
:100C3000B0912171A20FB31F11962C9111970C0F37
:100C40001D1FF8012483F6013196EE0FFF1F2C9132
:100C5000EC0FFD1F2483F39401C0F12C2F2D30E005
:100C600024173507C0F2880F991F8C8301968A8359
:100C70009B8313C089818068898382E08C8381E0B3
:100C800090E08A839B8309C089818068898383E09F
:100C90008C8381E090E08A839B83CE010E943105A2
:100CA000DF91CF911F910F91FF90DF90CF9008952A
:100CB0000F931F93CF93DF93EC018C8190E0982FDB
:100CC00088272D81822B4E8150E0542F44272F817D
:100CD000422B9A01215031092A30310508F5840F41
:100CE000951F0B9798F48A01000F111F60913C71BA
:100CF00070913D71A801CE0105960E942B080C83CE
:100D0000A8014F5F5F4F4A835B8313C0898180686E
:100D1000898382E08C8381E090E08A839B8309C091
:100D200089818068898383E08C8381E090E08A8375
:100D30009B83CE010E943105DF91CF911F910F91CE
:100D40000895FC01248130E0322F22278581282B51
:100D5000B901468150E0542F44278781482B411523
:100D6000510521F041158FEF5807F1F569327105F2
:100D700088F5C90196958795969587959695879557
:100D8000382F330F330F330F231B452B89F0A091DE
:100D90002271B0912371A80FB91F81E090E002C0C9
:100DA000880F991F2A95E2F79C91892B8C9325C077
:100DB000A0912271B0912371A80FB91F81E090E03A
:100DC00002C0880F991F2A95E2F780959C9189238C
:100DD0008C9313C081818068818382E0848381E069
:100DE00090E08283938309C081818068818383E05E
:100DF000848381E090E082839383CF010E94310558
:100E00000895CF93DF93EC018C8190E0982F882791
:100E10002D81822B4E8150E0542F44272F81422B6D
:100E200049375105B0F49C01240F351F213231059B
:100E300080F42091207130912171880F991F440F07
:100E4000551FBE01685F7F4F820F931F0E942B08C2
:100E500009C089818068898383E08C8381E090E088
:100E60008A839B8384E090E08A839B83CE010E94E7
:100E70003105DF91CF910895ECE2F1E716861786F0
:100E800012821382148215821082118214861586B2
:100E90001682178212861386108611860895CF92C5
:100EA000DF92EF92FF920F931F93CF93DF936C012A
:100EB0007B018A01E9010E94460284E291E70E94D7
:100EC000DC040E943C07C0922271D0922371E09210
:100ED0001E71F0921F7100933C7110933D71C0938D
:100EE0002071D0932171DF91CF911F910F91FF90CD
:100EF000EF90DF90CF900895CF93DF93EC01ED81D9
:100F00008E2F90E084319105C8F5FC01E05AFF4F27
:100F10000C942508ECE2F1E7808191819E838F8318
:100F200036C0ECE2F1E7828193819E838F832FC0EC
:100F3000ECE2F1E7848195819E838F8328C0ECE207
:100F4000F1E787818E8386818F8321C0ECE2F1E710
:100F500081858E8380858F831AC0ECE2F1E78385DB
:100F60008E8382858F8313C0ECE2F1E787858E83C1
:100F700086858F830CC00E943C0709C089818068E8
:100F8000898381E08C8381E090E08A839B83CE011A
:100F90000E943105DF91CF910895CF93DF93CDB7B4
:100FA000DEB7C450D140CDBFDEBFCE0101960E9456
:100FB000FA02882309F442C0ECE2F1E786819781C6
:100FC0000196868397832A81822F90E0FC013197D6
:100FD000E031F10538F5EC58FF4F0C942508CE01AF
:100FE00001960E9440052AC0CE0101960E949505F7
:100FF00025C0CE0101960E94EA0520C0CE010196CF
:101000000E9458061BC0CE0101960E94A10616C080
:10101000CE0101960E947C0711C0CE0101960E946C
:1010200001070CC020682A8381E08D8381E090E075
:101030008B839C83CE0101960E943105CC5FDE4FED
:10104000CDBFDEBFDF91CF910895EE0FFF1F05905A
:10105000F491E02D0994FB01DC0102C001900D9296
:1010600041505040D8F70895DC0128ED209334001A
:081070006C930895F894FFCF82
:061078000C700E70FFFF7A
:00000001FF
