:100000000C9469000C94F4040C94CD040C949100AD
:100010000C9491000C9491000C9491000C9491001C
:100020000C9491000C9491000C9491000C9491000C
:100030000C9491000C9491000C9491000C949100FC
:100040000C9483040C9491000C9441050C941B05B2
:100050000C9491000C9491000C9491000C949100DC
:100060000C9491000C9491000A0B0C0D0E0F0000E3
:100070000000240027002A000000000025002800BE
:100080002B000000000023002600290004040404C3
:100090000404040402020202020203030303030332
:1000A000010204081020408001020408102001020F
:1000B00004081020000000080002010000030407EB
:1000C00000000000000000000001020304057305A9
:1000D000BE0811241FBECFEFD8E0DEBFCDBF11E0B8
:1000E000A0E0B1E0E2E2F6E102C005900D92A63791
:1000F000B107D9F722E0A6E7B1E001C01D92AC3606
:10010000B207E1F710E0C8E6D0E004C02197FE0195
:100110000E94230AC736D107C9F70E9433060C9400
:10012000040B0C940000833081F028F4813099F0A6
:100130008230A9F008958730A9F08830C9F0843062
:10014000B1F4809180008F7D03C0809180008F7713
:1001500080938000089584B58F7784BD089584B519
:100160008F7DFBCF8091B0008F778093B000089592
:100170008091B0008F7DF9CFCF93DF93282F30E0AF
:10018000F901EC54FF4F8491F901E056FF4FD491EF
:10019000F901E457FF4FC491CC23A1F081110E94D3
:1001A0009300EC2FF0E0EE0FFF1FEE57FF4FA591ED
:1001B000B491EC91ED2381E090E009F480E0DF91CF
:1001C000CF91089580E090E0FACF1F93CF93DF9313
:1001D000282F30E0F901EC54FF4F8491F901E056EB
:1001E000FF4FD491F901E457FF4FC491CC23A9F0FC
:1001F000162F81110E949300EC2FF0E0EE0FFF1FED
:10020000E858FF4FA591B4918FB7F894EC91111174
:1002100008C0D095DE23DC938FBFDF91CF911F9173
:100220000895DE2BF8CF682F80914C020E94E500E4
:1002300080916402909165028230910538F0880FB8
:10024000991F880F991F05970197F1F7089581E08D
:100250000C94130120914A0230914B0240914C02C0
:1002600050914D022417350721F0682F822F0C94EE
:10027000E5000895CF93DF9390E0FC01E056FF4F37
:10028000249184579F4FFC0184918823D1F090E002
:10029000880F991FFC01E259FF4FA591B491FC0111
:1002A000E858FF4FC591D49161110EC09FB7F894E3
:1002B0008C91E22FE0958E238C932881E223E883B2
:1002C0009FBFDF91CF9108958FB7F894EC91E22B07
:1002D000EC938FBFF6CF3FB7F89480917C0190915B
:1002E0007D01A0917E01B0917F0126B5A89B05C03C
:1002F0002F3F19F00196A11DB11D3FBFBA2FA92FA5
:10030000982F8827BC01CD01620F711D811D911DA1
:1003100042E0660F771F881F991F4A95D1F708950D
:100320008F929F92AF92BF92CF92DF92EF92FF9205
:100330004B015C010E946B016B017C010E946B010F
:100340006C197D098E099F09683E734081059105EE
:10035000A8F321E0821A9108A108B10888EEC80E1E
:1003600083E0D81EE11CF11C81149104A104B104A6
:1003700029F7FF90EF90DF90CF90BF90AF909F90C4
:100380008F90089581E08093780161E084E00C947F
:10039000E50081E08093770161E083E00C94E50063
:1003A0000895AF92BF92CF92DF92EF92FF920F9398
:1003B0001F93CF93DF936C017B018B01040F151FFB
:1003C000EB015E01AE18BF08C017D10759F0699163
:1003D000D601ED91FC910190F081E02DC6010995C7
:1003E000892B79F7C501DF91CF911F910F91FF9074
:1003F000EF90DF90CF90BF90AF900895FC01538DA8
:10040000448D252F30E0842F90E0821B930B5417EE
:1004100010F0CF96089501970895FC01918D828D7B
:10042000981761F0A28DAE0FBF2FB11D5D968C9114
:10043000928D9F5F9F73928F90E008958FEF9FEF53
:100440000895FC01918D828D981731F0828DE80F0F
:10045000F11D858D90E008958FEF9FEF0895FC01C9
:10046000918D228D892F90E0805C9F4F821B910996
:100470008F739927089584EA91E00E942F0221E06A
:10048000892B09F420E0822F089580E090E0892BE9
:1004900029F00E943B0281110C9400000895FC0198
:1004A000A48DA80FB92FB11DA35ABF4F2C91848DD5
:1004B00090E001968F739927848FA689B7892C9332
:1004C000A089B1898C91837080648C93938D848D85
:1004D000981306C00288F389E02D80818F7D808388
:1004E0000895EF92FF920F931F93CF93DF93EC0148
:1004F00081E0888F9B8D8C8D98131AC0E889F989CB
:10050000808185FF15C09FB7F894EE89FF896083CD
:10051000E889F98980818370806480839FBF81E04E
:1005200090E0DF91CF911F910F91FF90EF90089590
:10053000F62E0B8D10E00F5F1F4F0F731127E02E6B
:100540008C8D8E110CC00FB607FCFACFE889F989A3
:10055000808185FFF5CFCE010E944F02F1CFEB8D58
:10056000EC0FFD2FF11DE35AFF4FF0829FB7F89477
:100570000B8FEA89FB8980818062CFCFCF93DF9395
:10058000EC01888D8823B9F0AA89BB89E889F989AB
:100590008C9185FD03C0808186FD0DC00FB607FCE0
:1005A000F7CF8C9185FFF2CF808185FFEDCFCE0113
:1005B0000E944F02E9CFDF91CF9108958EBD0000D8
:1005C0000DB407FEFDCF8EB508950F931F930091D4
:1005D0004E0210914F02209150023091510240E0A2
:1005E00052E16AE770E080E0041715072607370735
:1005F00040F476956795579547958F5F8630A1F7BC
:1006000087E0982F906A9695809581709CBD8DBDEE
:1006100080E01F910F910C941301CF93C82F0E947B
:10062000E5028C2F80620E94DE0280935202CF91FD
:100630000C942701CF93DF93D82FC62F0E94E50299
:100640008D2F80620E94DE02809352028C2F0E94C6
:10065000DE02DF91CF910C9427016091590261FD78
:100660000AC062606093590280E00E941A038BE125
:100670009EE40197F1F70895CF93C82F0E94E502F9
:100680008C2F0E94DE02809352028FEF0E94DE02C6
:10069000C82F0E9427018C2FCF91089580E00E94DF
:1006A0002A0180916002909161028230910538F0B8
:1006B000880F991F880F991F05970197F1F780916F
:1006C0005C02882319F081EE0E940D0360915902AB
:1006D0006E7F6093590280E00E941A0382E00E94BC
:1006E0003C03E8ECF0E0E49161E070E001C0660FEB
:1006F000EA95EAF7682B82E00C941A03FF920F93B5
:100700001F93CF93DF93C82FF62E072F142F0E942D
:10071000E5028C2F80620E94DE0280935202CF2D70
:10072000D02F115020F089910E94DE02FACFDF9184
:10073000CF911F910F91FF900C9427010E942D03E0
:100740006091590261606093590280E00E941A032F
:1007500060E787E00E941A0381E00E942A018091ED
:100760005B02882339F040915D0264E572E08AE023
:100770000C947E0382E00E943C03E8ECF0E0E491FC
:1007800021E030E001C0220FEA95EAF72095622FC0
:10079000682382E00E941A0310925B0208950E946F
:1007A000E50280E50E94DE028093520283E70E9408
:1007B000DE020C942701CF92DF92EF92FF920F930B
:1007C0001F93CF93DF937C0180915E02C0E0D6E05F
:1007D000811107C0C0915302DC2FC73008F0D6E06A
:1007E000CD1B0E94E50280EA0E94DE028093520245
:1007F0008701D15030F0F80181918F010E94DE0213
:10080000F8CFC15020F080E00E94DE02FACF0E94B3
:10081000270181E00E942A018FB7F894C090A001BF
:10082000D090A101E090A201F090A3018FBF8FEFC3
:100830000E940D0380915202807309F52FB7F8943E
:100840008091A0019091A101A091A201B091A3017A
:100850002FBF8C199D09AE09BF0980369105A105EE
:10086000B10528F381E080935F0280E0DF91CF91B2
:100870001F910F91FF90EF90DF90CF90089580E04F
:100880000E942A0160E787E00E941A0380915202C9
:1008900084FF04C081EE0E940D03E7CF81E0E6CF24
:1008A0000F931F93CF93DF9380915E02C0E0D0E25D
:1008B000811107C0C0915302DC2FC13208F0D0E291
:1008C000CD1B0E94E50281E60E94DE028093520267
:1008D00000E811E0D15038F08FEF0E94DE02F801FD
:1008E00081938F01F7CFC15020F08FEF0E94DE027D
:1008F000FACF0E94270160E487E0DF91CF911F913A
:100900000F910C941A031F920F920FB60F9211249D
:100910002F933F938F939F93AF93BF938091A001A9
:100920009091A101A091A201B091A30130917B010E
:1009300023E0230F2D3758F50196A11DB11D2093FB
:100940007B018093A0019093A101A093A201B09399
:10095000A30180917C0190917D01A0917E01B091D5
:100960007F010196A11DB11D80937C0190937D01B3
:10097000A0937E01B0937F01BF91AF919F918F9122
:100980003F912F910F900FBE0F901F90189526E862
:10099000230F0296A11DB11DD2CF1F920F920FB649
:1009A0000F9211242F933F934F935F936F937F93F5
:1009B0008F939F93AF93BF93EF93FF93E0910201C7
:1009C000F09103010995FF91EF91BF91AF919F9134
:1009D0008F917F916F915F914F913F912F910F90E8
:1009E0000FBE0F901F9018951F920F920FB60F9287
:1009F00011242F933F934F935F936F937F938F9324
:100A00009F93AF93BF93EF93FF93E0910001F09119
:100A100001010995FF91EF91BF91AF919F918F9146
:100A20007F916F915F914F913F912F910F900FBEEA
:100A30000F901F9018951F920F920FB60F921124CE
:100A40002F933F934F935F936F937F938F939F93D6
:100A5000AF93BF93EF93FF9384EA91E00E944F021C
:100A6000FF91EF91BF91AF919F918F917F916F9186
:100A70005F914F913F912F910F900FBE0F901F905C
:100A800018951F920F920FB60F9211242F938F93E8
:100A90009F93EF93FF93E091B401F091B5018081B2
:100AA000E091BA01F091BB0182FD1BC09081809161
:100AB000BD018F5F8F732091BE01821741F0E091DD
:100AC000BD01F0E0EC55FE4F958F8093BD01FF9185
:100AD000EF919F918F912F910F900FBE0F901F90CC
:100AE00018958081F4CF1092A7011092A60188EE8C
:100AF00093E0A0E0B0E08093A8019093A901A093B7
:100B0000AA01B093AB0189E491E09093A501809391
:100B1000A40185EC90E09093B1018093B00184EC46
:100B200090E09093B3018093B20180EC90E09093B9
:100B3000B5018093B40181EC90E09093B70180936C
:100B4000B60182EC90E09093B9018093B80186ECF5
:100B500090E09093BB018093BA011092BD01109276
:100B6000BE011092BF011092C00189E090E0909305
:100B70004B0280934A028AE090E090934D0280936A
:100B80004C0280E896E9A8E9B0E080934E02909389
:100B90004F02A0935002B093510280E2809353021F
:100BA00010925A0210925B0285E080935D0281E010
:100BB00080935E0285E090E0A0E0B0E08093640264
:100BC00090936502A0936602B093670281E492E07D
:100BD000909349028093480210925402109243026B
:100BE0001092420210924502109244021092470263
:100BF0001092460261E070E090E080E00E94290AD5
:100C00000097E1F0909343028093420210924502D4
:100C1000109244022091460230914702232B11F496
:100C2000FC01108210924702109246026FE571E0BB
:100C300080914202909143020C94EF0A809142020B
:100C400090914302009711F00E94630910924302B1
:100C500010924202109247021092460210924502F0
:100C6000109244020895789484B5826084BD84B55E
:100C7000816084BD85B5826085BD85B5816085BD97
:100C800080916E00816080936E001092810080914F
:100C900081008260809381008091810081608093D7
:100CA0008100809180008160809380008091B100FC
:100CB00084608093B1008091B00081608093B00027
:100CC00080917A00846080937A0080917A008260BB
:100CD00080937A0080917A00816080937A0080917D
:100CE0007A00806880937A001092C10061E084E00D
:100CF0000E943A0161E083E00E943A0161E082E0F3
:100D00000E943A0160E088E00E943A0160E087E0DA
:100D10000E943A0160E086E00E943A0160E085E0CE
:100D20000E943A01E091B401F091B50182E0808324
:100D3000E091B001F091B1011082E091B201F09127
:100D4000B3018FEC80831092BC01E091B801F09167
:100D5000B90186E08083E091B601F091B70180810E
:100D600080618083E091B601F091B7018081886055
:100D70008083E091B601F091B70180818068808323
:100D8000E091B601F091B70180818F7D808348E0CA
:100D900050E067E571E084EA91E00E94D101CFB7AD
:100DA000F89480917601811127C0E6E9F0E0849102
:100DB000EAEAF0E09491E82FF0E0EE0FFF1FE2592D
:100DC000FF4FA591B491EC91E92321F461E08AE011
:100DD0000E94E50061E08AE00E943A018CB58061E2
:100DE0008CBD8CB580648CBD61E08DE00E943A01C1
:100DF00061E08BE00E943A01809176018F5F8093E1
:100E00007601CFBF80914A0290914B028F3F9807A5
:100E100009F48DC020914C0230914D022F3F3207D2
:100E200009F485C08217930741F061E00E943A01FE
:100E300061E080914C020E943A0180E00E942A0108
:100E400081E00E94130165E070E080E090E00E9484
:100E500090016FE584E00E941A0386E00E943C0343
:100E600045E550E060E070E040936002509361021D
:100E70006093620270936302682F677D86E00E9430
:100E80001A0386E00E943C038DE10E943C03C82FB8
:100E90000E94CF038DE10E943C0391E0C81390E0D3
:100EA00090935A02882341F0C81302C00E94CF03D6
:100EB00060E08DE10E941A0310925C0260E08CE118
:100EC0000E941A0310925E026FE381E00E941A03EF
:100ED00063E082E00E941A0380E280935302C1E142
:100EE000609153028C2F0E941A03CF5FC731C1F764
:100EF00063E083E00E941A0385E080935D026CE466
:100F00000E941A0360E787E00E941A0382EE0E94A3
:100F10000D0381EE0E940D036CE080E00E941A0335
:100F200080E00E943C03809359020E942D0386E0DA
:100F30000E943C03887F682F656086E00E941A0348
:100F40006FE381E00E941A036AEA84E00E941A03B8
:100F500040915D0260E171E08AE00E947E03409171
:100F60005D0260E171E080E10E947E03E9E6F0E06D
:100F7000849140915D026AE071E00E947E0382E00C
:100F80000E943C03E9ECF0E0E49161E070E001C014
:100F9000660FEA95EAF7682B82E00E941A030E9426
:100FA0009E0300E010E0D1E0C5E042E0E42E0E94A4
:100FB0009E038FEF0E940D038091520290E0959561
:100FC00087958770863070F40E94500447E050E0A7
:100FD0006EE371E080E891E00E94F60A892BC1F08F
:100FE000D0937A0180917901813009F44CC068F185
:100FF000823009F467C0833009F49CC001151105E3
:10100000B1F20E943B02882391F20E940000CFCFF0
:1010100046E050E068E371E080E891E00E94F60A63
:10102000892B01F74AE050E06EE271E080E891E040
:101030000E94F60A892BB1F64FE050E060E671E0BD
:1010400084EA91E00E94D101CDCF45E050E060E715
:1010500071E084EA91E00E94D10161E084E00E94A5
:10106000E50061E083E00E94E5008FEF0E940D0340
:101070008091520290E09595879587708630A8F709
:101080000E945004F2CF61E084E00E94E50061E03C
:1010900083E00E94E50080917A01882309F4AECFB5
:1010A0000E944E0388E291E00E94DB03882339F01E
:1010B000E09279010E949E030E949E039FCFC093FD
:1010C0007901FACF10927A0160E084E00E94E50095
:1010D00060E083E00E94E500F0907801FF2061F07D
:1010E0000E944E0382E291E00E94DB038823E1F03C
:1010F0000E949E030E949E0380917701882309F439
:101100007DCF0E944E038CE191E00E94DB03882397
:1011100071F00E949E030E949E03FF2009F46ECF8F
:1011200083E0809379016ACFC0937901E3CFC093C4
:101130007901F1CF61E082E00E94E50087E00E9442
:10114000BC00892B09F45ACF85E00E94BC00892B92
:1011500009F454CF0E944E0360E082E00E94E50053
:1011600086E191E00E94DB03882309F4A5CF109269
:10117000780110927701D09379019ECF809142023D
:1011800090914302009711F00C94630908950F9316
:101190001F93CF93DF938230910510F482E090E0AB
:1011A000E0916A02F0916B0230E020E0B0E0A0E054
:1011B000309799F42115310509F44AC0281B390BE1
:1011C00024303105D8F58A819B816115710589F13B
:1011D000FB0193838283FE0111C040815181028112
:1011E000138148175907E0F04817590799F41097E9
:1011F00061F012960C93129713961C933296CF01BE
:10120000DF91CF911F910F91089500936A0210937F
:101210006B02F4CF2115310551F04217530738F016
:10122000A901DB019A01BD01DF01F801C1CFEF0186
:10123000F9CF90936B0280936A02CDCFFE01E20F4B
:10124000F31F819391932250310939832883D7CF9B
:101250002091680230916902232B41F4209106010C
:1012600030910701309369022093680220910401B4
:10127000309105012115310541F42DB73EB740915C
:10128000080150910901241B350BE0916802F0918F
:101290006902E217F307A0F42E1B3F0B281739074A
:1012A00078F0AC014E5F5F4F2417350748F04E0FC2
:1012B0005F1F5093690240936802819391939FCF7F
:1012C000F0E0E0E09CCFCF93DF930097E9F0FC01E2
:1012D000329713821282A0916A02B0916B02ED01E3
:1012E00030E020E01097A1F420813181820F931F1C
:1012F00020916802309169022817390709F061C00E
:10130000F0936902E0936802DF91CF910895EA01BA
:10131000CE17DF07E8F54A815B819E014115510533
:10132000B1F7E901FB83EA8349915991C40FD51FB5
:10133000EC17FD0761F4808191810296840F951F5F
:10134000E90199838883828193819B838A83F0E07A
:10135000E0E012968D919C9113970097B9F52D912D
:101360003C911197CD010296820F931F2091680244
:10137000309169022817390739F6309751F51092E4
:101380006B0210926A02B0936902A0936802BCCF0C
:10139000D383C28340815181840F951FC817D90719
:1013A00061F44E5F5F4F88819981480F591F5183C7
:1013B00040838A819B81938382832115310509F0C3
:1013C000B0CFF0936B02E0936A029ECFFD01DC0187
:1013D000C0CF13821282D7CF2F923F924F925F924B
:1013E0006F927F928F929F92AF92BF92CF92DF9235
:1013F000EF92FF920F931F93CF93DF93CDB7DEB79A
:10140000CA1BDB0B0FB6F894DEBF0FBECDBF09942D
:101410002A88398848885F846E847D848C849B8484
:10142000AA84B984C884DF80EE80FD800C811B8192
:10143000AA81B981CE0FD11D0FB6F894DEBF0FBEC1
:10144000CDBFED010895EE0FFF1F0590F491E02D43
:101450000994B0E0A0E0EFE2FAE00C94EE098C0110
:10146000009751F4CB010E94C7088C01C801CDB789
:10147000DEB7E0E10C940A0AFC01E60FF71F9C01BD
:1014800022503109E217F30708F49DC0D901CD912C
:10149000DC911197C617D70798F0C530D10530F306
:1014A000CE0104978617970708F3C61BD70B229720
:1014B000C193D1936D937C93CF010E946309D6CFE2
:1014C0005B01AC1ABD0A4C018C0E9D1EA0916A02F4
:1014D000B0916B02512C412CF12CE12C109731F57D
:1014E00080916802909169028815990509F05CC0A5
:1014F0004616570608F058C08091040190910501E6
:10150000009741F48DB79EB74091080150910901B1
:10151000841B950BE817F90708F055C0F093690292
:10152000E0936802F90171836083A0CF8D919C9153
:10153000119712966C90129713967C901397A8159A
:10154000B90559F56C0142E0C40ED11CCA14DB0484
:1015500020F1AC014A195B09DA011296159780F067
:101560006282738251834083D9016D937C93E1142D
:10157000F10471F0D7011396FC93EE93129776CF96
:1015800022968C0F9D1FF90191838083F301EFCF89
:10159000F0936B02E0936A0269CF4816590608F48B
:1015A0002C017D01D3019ACFCB010E94C7087C0199
:1015B000009749F0AE01B8010E94E60AC8010E94F6
:1015C0006309870153CF10E000E050CFFB01DC013D
:1015D00002C001900D9241505040D8F70895FB0190
:1015E000DC0101900D920020E1F70895FB01DC0180
:1015F0004150504030F08D910190801919F4002035
:10160000B9F7881B990B089510E0C8E6D0E004C034
:10161000FE010E94230A2196C936D107C9F7F89422
:02162000FFCFFA
:10162200D001D00100006C02800030303030310037
:10163200303030303200454D5054590054455243F9
:101642003200544552433100524541445900454D00
:101652005054595F4F555400524553455400454E1E
:1016620041424C4500000000007102D101FE01BE62
:10167200022F020D0221020A544552435F563100E5
:10168200556E6B6E6F776E20636F6D6D616E640069
:061692000A494E49540014
:00000001FF
